:020000022000DC
:1070000000000420757302005D7302005F730200CC
:1070100061730200637302006573020000000000E8
:107020000000000000000000000000006773020084
:1070300069730200000000006B7302006D730200B0
:1070400059EB02006F7302002DF102006F73020012
:107050006F7302006F73020025F002006F7302006D
:107060006F7302006F7302006F7302006F73020090
:107070006F7302006F7302006F7302006F73020080
:107080006F730200559B02006F7302006F73020062
:107090006F7302006F7302004DD103006F73020023
:1070A0006F7302006F7302006F7302006F73020050
:1070B0006F7302006F730200000000000000000008
:1070C0006F7302006F7302006F7302006F73020030
:1070D0006F7302006F7302006F7302006F73020020
:1070E0006F7302006F7302006F73020000000000F4
:1070F000000000006F730200000000006F730200C8
:10710000000000000000000000000000000000007F
:10711000000000000000000000000000000000006F
:10712000000000000000000000000000000000005F
:10713000000000000000000000000000000000004F
:10714000000000000000000000000000000000003F
:10715000000000000000000000000000000000002F
:10716000000000000000000000000000000000001F
:10717000000000000000000000000000000000000F
:1071800000000000000000000000000000000000FF
:1071900000000000000000000000000000000000EF
:1071A00000000000000000000000000000000000DF
:1071B00000000000000000000000000000000000CF
:1071C00000000000000000000000000000000000BF
:1071D00000000000000000000000000000000000AF
:1071E000000000000000000000000000000000009F
:1071F000000000000000000000000000000000008F
:10720000354936480A1A02D0072291438D4634493F
:1072100034480A1A06D00722914381F309880222D2
:1072200082F3148830483149314A00F044F831483B
:107230003149324A00F03FF831483249324A00F0D1
:107240003AF832483249334A00F035F83248334987
:10725000334A00F030F833483349344A00F02BF811
:1072600033483449344A00F026F83448344900227F
:1072700000F02CF833483449002200F027F8334856
:107280003349091A082902DB002202604160314AB1
:1072900090471F481F49884205D00268043003B454
:1072A000904703BCF7E700208646EC46002000210B
:1072B000294A9047FEE7884207D0521A05D0037842
:1072C00001300B700131013AF9D17047884202D088
:1072D00002700130FAE770470000042000E003204C
:1072E00000000420000004208834040074220020E0
:1072F00054250020D0730200D0730200ECF6030086
:107300008834040074220020742200207CF80300DA
:107310007CF803007CF803007CF803007CF8030091
:107320007CF803007CF803007CF80300863404003A
:1073300068370400542500205425002054250020DF
:10734000F33C0020F43C0020F43C0020F43C0020FE
:10735000F45C00209D730200A5FA0200FEE7FEE740
:10736000FEE7FEE7FEE7FEE7FEE7FEE7FEE7FEE7F5
:1073700000F002B8FFF7FCBF0F484FF00701884349
:1073800085460E4880470E48016841F4700101604F
:10739000BFF34F8FBFF36F8FFFF732BF09480A4922
:1073A0000A4A884207D0521A05D0037801300B7080
:1073B0000131013AF9D170470000042005E00200D4
:1073C00088ED00E068F803006022002074220020AD
:1073D00000B585B00190019B002B0AD0074B43F00C
:1073E00001030393019B9B010293039B029898471F
:1073F00000E000BF05B05DF804FB00BF90F803009B
:1074000000B583B00190019B002B0AD04FF47A7035
:10741000FFF7DEFF019B013B0193019B002BF5D1A0
:1074200000E000BF03B05DF804FB08B50AF078F98E
:1074300000BF08BD00B589B0039002910192019B85
:10744000002B33D00023079303230693029A079B54
:107450001344019A194600200AF012F90590079A80
:10746000059B13440793019A059BD31A0193059B2F
:10747000002B13D10F4B1B7883F00103DBB2002BE1
:1074800013D10120FFF7BCFF069B013B0693069B2F
:10749000002B03D1074B00221A7007E0054B012295
:1074A0001A70019B002BD1D100E000BF00BF09B0D2
:1074B0005DF804FB5425002000B585B003900291CF
:1074C000054B00934023054A0299039800F012F8F7
:1074D00000BF05B05DF804FB35740200582500209C
:1074E00082B0019000BF02B0704782B0019000BF2F
:1074F00002B0704700B5A1B00590049103920293C9
:10750000049805F0EDFF039B1593029B169300234F
:10751000179300238DF8603000231993229B1A9350
:1075200000231F930FA91F9B0822049806F0B2F8AE
:1075300008231F93119B1293BDF84030ADF84C30D7
:10754000BDF84230ADF84E3000238DF851309DF833
:107550003C3003F00303DBB2012B26D10F9BC3F3B6
:1075600095231C939DF83C30C3F3C203DBB28DF826
:107570005030BDF83C30C3F38313DBB21B931B9B2D
:107580009A0009A91F9B049806F084F81B9B9B0096
:107590001F9A13441F9312AA09A915AB009313460F
:1075A0001B9A1C9800F0F8FE2FE09DF83C3003F089
:1075B0000303DBB2022B28D1BDF83E30C3F389139D
:1075C0009BB21E939DF83C30C3F3C203DBB28DF82F
:1075D00050301E9B082B28BF08231D9307A91F9B13
:1075E0001D9A049806F056F81F9A1D9B13441F938A
:1075F0001E9A1D9BD31A1E9315AB12AA07A81D999C
:1076000000F06CFF1E9B002BE3D1049805F077FF80
:1076100000BF21B05DF804FB82B00190019BDB68E4
:1076200001225A7100BF02B07047000000B583B05C
:107630004FF0FF330193FFF7F8FE0421084800F0F4
:10764000C7FD0190019B002B03DA0649412008F099
:107650007DFA0348FFF7E0FF00BF03B05DF804FBCD
:1076600058F80300A8F8030000B583B0019000911A
:10767000019B1B681B6800990198984700BF03B0E5
:107680005DF804FB00B583B00190019B1B685B684B
:107690000198984700BF03B05DF804FB00B583B0C4
:1076A0000190019B1B689B680198984700BF03B03D
:1076B0005DF804FB82B001900B468DF80330019B0E
:1076C000DB689DF803201A7100BF02B0704782B0DA
:1076D0000190019BDB681B79184602B0704782B0AD
:1076E0000190019BDB6801225A7100BF02B0704714
:1076F00082B00190019BDB685B79184602B070474D
:1077000000B585B0019000910C4B00221A700C4816
:1077100005F04AFE0390039B002B01D0039B08E079
:10772000084806F06FF9084A084BD31ADB080293A1
:107730000023184605B05DF804FB00BF00270020B9
:1077400074F7030004F9030058F8030088F70300F6
:10775000024A034BD31ADB081846704758F8030057
:1077600088F7030000B587B001900B468DF8033011
:107770009DF80330002B1FD0FFF7EAFF0490002391
:10778000059313E0059B9B000E4A13440393039B50
:107790001B881A46019B1B689A4204D1019B059ADB
:1077A0001A60002309E0059B01330593059A049BA9
:1077B0009A42E7D3052300E00023184607B05DF89E
:1077C00004FB00BF7422002000B585B001900B4679
:1077D0008DF803309DF8032001AB11461846FFF7E2
:1077E000C1FF0346002B07D1019BDB00054A134470
:1077F0000393039B1B6800E00023184605B05DF867
:1078000004FB00BF88F7030084B001900B468DF89D
:107810000330019BDB00174A134402939DF80330A9
:10782000013B032B1CD801A252F823F03D78020043
:10783000457802004D7802005778020002238DF847
:107840000F3011E004238DF80F300DE0029B1B79FF
:107850008DF80F3008E0029B5B798DF80F3003E064
:1078600000238DF80F3000BF9DF80F30184604B08C
:10787000704700BF88F7030084B001900091002397
:107880008DF80F30019B1B7803F00403DBB2002B53
:1078900024D0019B1B78C3F30103DBB2012B02D080
:1078A000022B0CD017E0009B1B68019A1288C2F3D0
:1078B0008312D2B213449A1C009B1A600BE0009B07
:1078C0001B68019A5288C2F3891292B213449A1C1F
:1078D000009B1A6000BF01238DF80F309DF80F3018
:1078E000184604B07047000000B58BB00023ADF817
:1078F00026303E4804F089FB3D4804F086FB3D4BB2
:107900009B6804933C4B1B680693049A069B1340A8
:1079100002339B00374A13440433089304AB1946DF
:107920000898FFF7A9FF0346002B09D0049A069B8D
:10793000134002339B002F4A134404330893EDE7AE
:1079400000BF0023079311E0049B5A1C0492069A7F
:107950001340079A920001A90A44264902339B006A
:107960000B445B681360079B01330793079B012B54
:10797000EAD99DF80430C3F30103DBB2012B10D028
:10798000022B1CD1BDF80A30ADF82630BDF8063008
:10799000C3F389139BB203339A08049B13440493E3
:1079A00013E0BDF80A30ADF82630BDF80430C3F35B
:1079B0008313DBB21A46049B1344049305E00F497A
:1079C0004FF4C27008F0C2F800BF094804F029FB68
:1079D0000590059B002B02D0049B064A9360BDF8DE
:1079E000263018460BB05DF804FB00BF182B0020B2
:1079F000142B0020002700207C22002014F9030013
:107A000000B585B00021074804F034FA0390039BC9
:107A10000293029B83F310030193019B184605B068
:107A20005DF804FB1C2B002000B589B00390029187
:107A300001920093039B1B0C0793FFF7E1FF069055
:107A4000FFF786FE0246079B934204D3214940F28A
:107A5000A91008F07BF8069B1904009B5A1C0A9B8E
:107A60001340079A0A431C4902339B000B445A6097
:107A7000009A0A9B134002339B00174A13440433B5
:107A80000593039B03F00703D9B2059A137861F3BA
:107A9000C5031370019B03F00F03D9B2059A138835
:107AA00061F389131380029BC3F31501059A1368D0
:107AB00061F39F231360059A1378012161F3010399
:107AC0001370059A13786FF38203137000BF09B027
:107AD0005DF804FB14F903000027002000B58DB009
:107AE0000390029113468DF80730039B02330A93EB
:107AF00001238DF8273000238DF81B300DF11B0377
:107B0000184601F0FBFB404B5A68029B1A603F4B42
:107B10001A683D4B99683C4B5B68CB1A13440133A0
:107B20000B9314E001213A4804F033FAFFF7DCFE2E
:107B300007900799364804F02CFA344B1A68324BF8
:107B40009968314B5B68CB1A134401330B930A9A43
:107B50000B9B9A42E6D89DF82730002B48D0002393
:107B600005939DF80730002B17D09DF814300122A3
:107B700062F301038DF814309DF8143043F00403D0
:107B80008DF81430039B03F00F03DAB2BDF8143004
:107B900062F38913ADF8143016E09DF81430022218
:107BA00062F301038DF814309DF8143043F00403A0
:107BB0008DF81430039BC3F309039AB2BDF8163055
:107BC00062F38F13ADF816300F4B5A680F4B1B68DA
:107BD000134002339B000C4A134404330893059A64
:107BE000089B1A60084B5A680A9B1344064A536064
:107BF0009DF81B30184601F097FB9DF8273018467A
:107C00000DB05DF804FB00BF002700207C2200209F
:107C10001C2B002000B58BB00590049103920293B9
:107C20001F4B1B68079306AB012219460298FFF70A
:107C300055FF0346002B24D0069B023309930023F3
:107C4000089311E0089B9B00039A1A44099B591C56
:107C5000099107990B401268124902339B000B44AB
:107C60005A60089B01330893089A029B9A42E9D311
:107C7000069A079B00931346029A04990598FFF70A
:107C8000D3FE084B1B78002B05D000BF00F096F800
:107C90000346002BFAD100BF0BB05DF804FB00BF18
:107CA0007C2200200027002000B583B001900091C5
:107CB0000023002200990198FFF7ACFF00BF03B03A
:107CC0005DF804FB00B587B0039002910192019B1F
:107CD000059305AA012302990398FFF79BFF00BFB4
:107CE00007B05DF804FB00B587B0039002910192E4
:107CF0000093019B0493009B059304AA022302991D
:107D00000398FFF787FF00BF07B05DF804FB00B5DD
:107D100089B00390029101920093019B0593009B0F
:107D200006930A9B079305AA032302990398FFF77A
:107D300071FF00BF09B05DF804FB00B589B0039086
:107D4000029101920093019B0493009B05930A9B6F
:107D500006930B9B079304AA042302990398FFF749
:107D600059FF00BF09B05DF804FB00B58BB003906C
:107D7000029101920093019B0593009B06930C9B3B
:107D800007930D9B08930E9B099305AA052302995F
:107D90000398FFF73FFF00BF0BB05DF804FB000046
:107DA000054B9A68044B5B689A420CBF0123002381
:107DB000DBB21846704700BF0027002000B599B01D
:107DC000FFF7EEFF0346002B01D00023C0E19B4BE1
:107DD0000022C3F81824BFF34F8F00BF974B9B6856
:107DE0000493974B1B681093049A109B1340023323
:107DF0009B00924A134404331193002317930023EA
:107E0000169300230F9304AB19461198FFF734FD26
:107E10000346002B19D0894BD3F81834002B14D10A
:107E2000864B5A68049B9A4205D8844B5B68834A08
:107E3000936000238CE1049A109B134002339B0053
:107E40007E4A134404331193DDE70023159311E0B8
:107E5000049B5A1C0492109A1340159A920001A98F
:107E60000A44764902339B000B445B681360159B00
:107E700001331593159B012BEAD99DF8043003F0CB
:107E80000303DBB2022B40F09C80BDF80630C3F345
:107E900089139BB20D93BDF80630C3F389139BB2CF
:107EA000502B28BF50239BB20C930C9BC3F30903A8
:107EB0009AB2BDF8063062F38F13ADF806300C9B12
:107EC00008330B939DF80430C3F3C203DBB20F9366
:107ED0000B995C4805F073FA1790179B002B00F084
:107EE000D380179805F0FCFA01A9169B0822179871
:107EF00005F0B2FB169B08331693049BDA43109BE4
:107F0000134001339B000A930C9A0A9B9A4242D970
:107F10000A9B002B08D0049A109B134002339B004D
:107F2000464A1344043300E0474B08930A9B002B56
:107F300002D00A9BDBB201E00C9BDBB28DF81F3054
:107F40000A9B002B01D0404B00E0002306930A9BC4
:107F5000002B06D00C9BDAB20A9BDBB2D31ADBB241
:107F600000E000238DF817309DF81F20169B08991C
:107F7000179805F071FB9DF81F30169A134416935D
:107F8000069B002B16D09DF81720169B0699179874
:107F900005F062FB0EE0049A109B134002339B0035
:107FA000264A134404330993169B0C9A099917988F
:107FB00005F052FB0D9B03339A08049B1344049372
:107FC00062E09DF8043003F00303DBB2012B5BD1C8
:107FD000BDF80430C3F38313DBB2062B28BF06239E
:107FE000DAB2BDF8043062F38913ADF80430BDF89D
:107FF0000430C3F38313DBB202330E939DF80430D5
:10800000C3F3C203DBB20F930E9B9B0019460D48CE
:1080100005F0D5F91790179B002B35D0179805F070
:108020005FFA01A9169B0822179805F015FB169B0D
:1080300008331693002315931DE000BF002700208E
:108040007C22002074F703000C270020049B5A1C9C
:108050000492109A134002339B003F4A1344191DA7
:10806000169B0422179805F0F7FA169B0433169313
:10807000159B01331593BDF80430C3F38313DBB2B2
:108080001A46159B9342E1D3179B002B40D0324BED
:10809000D3F810341493304BD3F81834002B1BD082
:1080A000179805F02CFA4DE000238DF84F30149806
:1080B000FFF71EFB0346002B02D001238DF84F3043
:1080C0009DF84F30002B03D017991498FFF7CCFA86
:1080D000149BDB681B681493149B002BE4D1179846
:1080E00005F00DFA00238DF803300DF10303184657
:1080F00001F004F9184BD3F81834002B02D1049B7B
:10810000154A93609DF80330184601F00DF919E007
:10811000114BD3F81034129306E01298FFF7BEFA11
:10812000129BDB681B681293129B002BF5D10B4A44
:108130000B4BD31ADB081B0443F002030949184612
:10814000FFF7B2FDFFF72CFE034683F00103DBB21D
:10815000184619B05DF804FB00270020B0F70300B3
:1081600088F7030068F9030000B585B00023039386
:1081700023E0164BD3F81034029301238DF8073017
:108180000FE00298FFF7A3FA03461A46039B9342B7
:1081900003D100238DF8073006E0029BDB681B68E3
:1081A0000293029B002BECD19DF80730002B01D0ED
:1081B000039B07E0039B01330393039B092BD8DD4B
:1081C0004FF0FF33184605B05DF804FB0027002090
:1081D00000B585B001900B468DF80330FFF7C4FF62
:1081E0000390039BB3F1FF3F01D1039B22E0039B6C
:1081F000DBB219460198FFF75DFA104BD3F8103443
:10820000002B08D10D4A019BC2F81034019BDB689A
:1082100000221A600DE0094BD3F81034DA68019B94
:10822000DB6812681A60054BD3F81034DB68019ADA
:108230001A60039B184605B05DF804FB0027002078
:1082400000B583B00C4BD3F8103401930A4B0122D4
:108250001A7009E00198FFF742FA0198FFF712FA45
:10826000019BDB681B680193019B002BF2D100BFCF
:1082700000BF03B05DF804FB0027002082B001902E
:10828000009100BF02B0704710B584B00390029116
:10829000039BDB88002B0AD0039BDB881A461F4B0D
:1082A000009313461E4A1F49029803F0F7FF039BF1
:1082B0001B7A052B2ED0039B5B7A002B12D0039BDD
:1082C0009B881A46039B1B7A19461046FFF79CFAB7
:1082D00003461A46144B53F822301A4613490298A3
:1082E00003F0DCFF039B1B6819460298FFF7C6FFEB
:1082F000039B1B7A1A460E4B53F82240039B9B8824
:1083000000211846FFF760FA034622460949029801
:1083100003F0C4FF00BF04B010BD00BF9CF9030010
:10832000ACF90300E4F9030094220020FCF90300F7
:108330008022002000FA030000B585B0039002916E
:1083400013468DF80730039B1B7A052B0FD0039B38
:108350005B7A002B06D00D4B1B681A460C4902981D
:1083600003F09CFF0B49029803F098FF07E09DF88B
:108370000730002B03D00749029803F08FFF0298C3
:1083800003F06AFF00BF05B05DF804FB94220020F3
:10839000FCF903000CFA030030B58BB0079006918E
:1083A000059204930E9B1B7B8DF827300E9B0022B9
:1083B0001A730E990498FFF767FF059B062B7FD869
:1083C00001A252F823F000BFE5830200EF83020010
:1083D000FF830200138402003184020059840200EA
:1083E0008984020007990E9803F058FF69E0069B04
:1083F0001B681A4607990E9803F050FF61E0069B30
:108400001A68069B04331B6807990E9803F046FF11
:1084100057E0069B1A68069B04331968069B0833CD
:108420001B6800930B4607990E9803F037FF48E04E
:10843000069B1968069B04331868069B08331B6863
:10844000069A0C3212680192009303460A46079975
:108450000E9803F023FF34E0069B1868069B043354
:108460001C68069B08331B68069A0C321268069932
:108470001031096802910192009323460246079940
:108480000E9803F00BFF1CE0069B1C68069B043350
:108490001D68069B08331B68069A0C321268069901
:1084A0001031096806981430006803900291019217
:1084B00000932B46224607990E9803F0EFFE00E04A
:1084C00000BF00220E990498FFF736FF0E9B9DF81F
:1084D00027201A7300BF0BB030BD00BF00B587B0B6
:1084E0000390029101920093029B082B60D8009B9D
:1084F0001B7B8DF81330009B00221A7300990198A2
:10850000FFF7C2FE0023059314E0059A029B9A42EE
:1085100009D2039A059B13441B781A4626490098F2
:1085200003F0BCFE03E02549009803F0B7FE059B6D
:1085300001330593059B072BE7D92149009803F0E8
:10854000ADFE0023059326E0059A029B9A421BD2BA
:10855000039A059B13441B788DF812309DF8123056
:108560007E2B0AD89DF81230184616F0F7FF034606
:10857000002B02D09DF8123000E02E231A4611493C
:10858000009803F08BFE03E00F49009803F086FE8D
:10859000059B01330593059B072BD5D90122009933
:1085A0000198FFF7C9FE009B9DF813201A7300E0A5
:1085B00000BF07B05DF804FB10FA030018FA0300CF
:1085C0001CFA030020FA030024FA030086B003908B
:1085D0000291019201238DF817309DF81730204A3F
:1085E000039B13601E4A029B53601D4A019B9360CC
:1085F000039B44F20102934212D0039B44F2020215
:10860000934220D1019B164AD360154BDB681B684F
:10861000134A9361124BDB685B68114AD36112E025
:10862000019B0F4A13610E4B1B699B680C4A5361F7
:108630000B4B1B691B680A4A9361094B1B695B68FA
:10864000074AD36100BF72B600BF00BF9DF8173064
:10865000DBB2002BFAD162B600BF00BF06B0704794
:10866000202B002000B583B002900091019244F2CB
:10867000010071466A4600F003F803B000BD00BF78
:1086800030B58BB007900691059272B600BFFFF728
:10869000D7FD00BFFFF792FB0346002BFAD1079BE3
:1086A00044F2020293422FD0079B44F2020293420B
:1086B00069D8079B44F20102934237D0079B44F2EA
:1086C000010293425FD8079B012B05D0079B41F223
:1086D000010293420CD056E0354A364BD31ADB08E0
:1086E0001B0443F0010334491846FFF7DDFA57E055
:1086F0002F4A304BD31ADB081B0443F001032F49E8
:108700001846FFF7D1FA4BE0059B0993284A294BFD
:10871000D31ADB081B0443F00100099B5B681A466F
:10872000099B1B682649FFF7DEFA39E0059B089391
:108730001F4A204BD31ADB081B0443F00104089B9B
:108740009D68089B9B68184605F07CFA034618460E
:10875000089B5B681946089B1B68069A0292019366
:10876000009103462A4617492046FFF7FEFA104AB1
:10877000104BD31ADB081B0443F0010312491846BF
:10878000FFF792FA0CE00A4A0A4BD31ADB081B04E3
:1087900043F00103069A0D491846FFF793FA00BF0C
:1087A000059A06990798FFF711FF00BF0BB030BD7F
:1087B000B0F7030088F7030080FA0300A0FA030073
:1087C000C4FA0300E0FA030008FB03001CFB0300EB
:1087D00082B00190019B03F00303002B0CBF012327
:1087E0000023DBB2184602B07047000082B0034697
:1087F0008DF807309DF807309AB2064B1B889A42D5
:1088000004D29DF807300133DBB200E000231846A4
:1088100002B070474C2B002000B583B00B4B1B7887
:108820008DF807300A4B1B78DBB21846FFF7DEFFE6
:1088300003461A469DF8073093420CBF01230023DC
:10884000DBB2184603B05DF804FB00BF482B0020E4
:10885000492B002082B0084B1B788DF80730074B5E
:108860001B78DBB29DF807209A420CBF012300233E
:10887000DBB2184602B07047482B0020492B00207D
:1088800000B585B003460092ADF806300B46ADF852
:108890000430BDF8043001339BB2DB00ADF80E307C
:1088A0000098FFF795FF034683F00103DBB2002B2E
:1088B00001D0072317E00E4A009B1360BDF80E306D
:1088C000009A13440B4A13600B4B00221A700B4B97
:1088D00000221A700A4ABDF806301380094ABDF812
:1088E000043013800023184605B05DF804FB00BF78
:1088F000402B0020442B0020492B0020482B002037
:108900004A2B00204C2B002000B587B003900B466B
:108910000192ADF80A30374B1B88BDF80A209A4205
:1089200060D84FF6FF73ADF8123000238DF8113088
:108930000DF11103184600F0E1FCFFF76DFF03464F
:10894000002B0ED12C4B1B78DBB2ADF812302A4B2A
:108950001B78DBB21846FFF749FF03461A46264B41
:108960001A709DF81130184600F0DEFCBDF8123088
:108970004FF6FF72934232D0204B1A68BDF8123086
:10898000DB001344019A1A60039B002B1CD0BDF836
:108990000A30002B18D01A4B1B68BDF8122015495D
:1089A000098801FB02F21344BDF80A200399184616
:1089B00016F010FE114B1A68BDF81230DB0013449C
:1089C000BDF80A209A8007E00C4B1A68BDF81230F7
:1089D000DB00134400229A800023059304E0042363
:1089E000059301E009230593059B184607B05DF840
:1089F00004FB00BF4A2B0020492B0020402B002005
:108A0000442B0020002318467047000000B585B0B5
:108A10002FE0204B1B78DBB2ADF80E301E4B1B68ED
:108A2000BDF80E201D49098801FB02F21344029390
:108A30001B4B1A68BDF80E30DB0013449B88ADF861
:108A40000630174B1A68BDF80E30DB0013441B6864
:108A50000093BDF80620009B1146029898470D4BE5
:108A60001B78DBB21846FFF7C1FE03461A46094BD6
:108A70001A70FFF7C7FF034683F00103DBB2002B38
:108A800004D0FFF7E7FE0346002BC2D000BF05B0BD
:108A90005DF804FB482B0020442B00204A2B0020CB
:108AA000402B00202DE9F04383B0144801F037F843
:108AB000034600221C461546114BD3E9002314EB54
:108AC000020845EB0309CDE900890E4BD3E90023E9
:108AD000DDE90001904271EB030307D2DDE90023D9
:108AE00012F1807643F10007CDE90067DDE900234C
:108AF0001046194603B0BDE8F08300BFB82200203D
:108B0000582B0020602B002088B001900091019B21
:108B10000793009B0693079BD3E90223CDE9042327
:108B2000069BD3E90223CDE90223DDE90423DDE935
:108B30000201904271EB03032CBF01230023DBB23F
:108B4000184608B07047000000B585B001900B468C
:108B5000ADF80230BDF80230082B03D007498F2052
:108B600006F0F4FF019B0393039B1B68039A526872
:108B70001046984700BF05B05DF804FB40FB0300BA
:108B8000F0B589B00190019B5B69002B03D133499B
:108B9000A22006F0DBFF00238DF81F30304B1B783E
:108BA000002B56D0019B002B53D0019B1B7FDBB2C7
:108BB000002B4ED0FFF776FF019BD3E902239042B2
:108BC00071EB03033DD3019B1B69002B02D1019B79
:108BD00000221A77019B5B690393019B9B690493B5
:108BE00003AB204A08211846FFF78EFE0690069B2D
:108BF0000593059B002B04D0184AB5210598FFF773
:108C000031FD019B1B69002B23D0019B1B7FDBB235
:108C1000002B1ED0019BD3E9022301990969002092
:108C20000C460546161943EB0507019BC3E902678D
:108C3000019B19460C4804F05FFF01238DF81F309B
:108C400007E0019B1946084804F056FF01238DF800
:108C50001F309DF81F30184609B0F0BD40FB0300DF
:108C6000542B0020498B020090FB0300F0B589B023
:108C7000019000910D230793009B00221A70019B25
:108C8000D3E90245FFF70EFF02460B46A61A65EB35
:108C90000307CDE90467DDE90423012A73F100032A
:108CA0001BDB049BB3F5350F05D300F0A9FA024690
:108CB000154B134403E0019BD3E9022313460393AE
:108CC0004FF49603039A0021104800F01BFE079012
:108CD000079B002B05D1012313E000210B4800F076
:108CE000E9FE079B0D2B07D10198FFF749FF0346CB
:108CF0001A46009B1A7003E00549F52006F026FF8E
:108D00000023184609B0F0BDFFFFB400B8220020D0
:108D100040FB030000B583B0044804F027FF019036
:108D2000019B184603B05DF804FB00BF90FB0300F5
:108D300000B583B0044804F03BFF0190019B184646
:108D400003B05DF804FB00BF90FB030000B583B0E7
:108D5000FFF7E0FF0190019B002B02D0019B002256
:108D60001A77019B002BF3D100BF00BF03B05DF861
:108D700004FB0000054BD3E9002312F1807043F19E
:108D80000001024BC3E9000100BF7047582B0020CF
:108D900010B582B00190124B1B68002B1DD00198BA
:108DA00000F0BDFE04460021019800F0A9FE034634
:108DB0001946204600F018FA0346B3F5960F04D37F
:108DC00008494FF4957006F0C1FE054B1B68184624
:108DD000FFF7D6FE024B00221A6000BF02B010BDA2
:108DE000502B002040FB030000B583B00190FFF73B
:108DF00059FE02460B460349C1E9002300BF03B0F8
:108E00005DF804FB602B002000B585B00190FFF7F2
:108E10008FFF039000238DF80B30039B002B48D06D
:108E20002B4B1B68002B03D101238DF80B3019E06D
:108E3000039BD3E90201264B1B68D3E9022390422E
:108E400071EB03030ED201238DF80B30204B1B680E
:108E50001B7FDBB2002B05D01D4B1B6819461D483C
:108E600004F04AFE9DF80B30002B2AD0FFF752FF8A
:108E700003900DF10A0319460398FFF7F7FE034626
:108E8000002B12D0124B1B68002B02D1019800F06E
:108E900045FC0F4A039B13609DF80A3083F00103E1
:108EA000DBB2002BB3D000BF0EE0094B00221A60EA
:108EB000ADE7074B1B68002B05D1019800F044FC7F
:108EC00001E000BF00E000BF00BF05B05DF804FB9B
:108ED000502B002090FB030000B587B001902C4A76
:108EE00003AB1946104602F0CCFE059048E0059B06
:108EF0001B78022B2ED0022B32DC002B02D0012B50
:108F000014D02DE0059B5B681B7FDBB283F001036F
:108F1000DBB2002B26D0059B5B6801221A77059BEC
:108F20005B6819461B4804F0E7FD1BE0059B5A6887
:108F3000194B1B689A4203D1174B00221A6012E0AA
:108F4000059B5B681946134804F046FE03468DF8FE
:108F5000133008E0FFF7FAFE104B01221A7002E00E
:108F600000BF00E000BF0A4A03AB1946104602F0FA
:108F7000A1FE074A03AB1946104602F082FE059097
:108F8000059B002BB3D100BF00BF07B05DF804FB09
:108F9000C02B002090FB0300502B0020542B0020FE
:108FA00000B583B00190019800F077FD0346002BD7
:108FB00001D0FFF7DFFE0021019800F08CFD034691
:108FC000002B02D00198FFF7E3FE0121019800F089
:108FD00082FD0346002B02D00198FFF705FF0198A0
:108FE000FFF77AFF0198FFF70FFF00BF03B05DF8AE
:108FF00004FB000008B5024800F09EFD00BF08BD5C
:10900000B822002000B585B0034600918DF80730E6
:10901000114A02AB1946104602F006FE0390039B6C
:10902000002B13D0039B9DF807201A70039B009A16
:109030005A60094A02AB1946104602F00EFE03467A
:10904000002B01D0FFF7D6FF002300E004231846D1
:1090500005B05DF804FB00BFC02B002000B583B055
:10906000164B1B680093164808235822154902F036
:1090700094FD0190019B002B01D0019B19E06B46F0
:10908000114A1946114800F0CBFA0190019B002BC0
:1090900001D0019B0DE001210C4800F0EDFC012303
:1090A0000B4A0121094800F065FB0A4B01221A70A6
:1090B000019B184603B05DF804FB00BF8CFB030066
:1090C000C02B0020682B0020A18F0200B8220020B6
:1090D000FFFF7F00542B002000B587B003900B46A4
:1090E00001928DF80B30039B002B04D1134940F201
:1090F0002E2006F02BFD019B002B04D10F4940F2DE
:109100002F2006F023FD019B002B01D1072310E047
:10911000039B1B680593059B019A5A619DF80B30D0
:10912000012B0CBF01230023DBB21A46059B1A61F9
:109130000023184607B05DF804FB00BF40FB0300A6
:10914000F0B587B0039002910192039B002B04D1EC
:10915000164940F23E2006F0F9FC039B0593059B5F
:109160001B7FDBB2002B01D000231CE0059B019A82
:109170009A61FFF797FC02460B46029900200C46C5
:109180000546161943EB0507059BC3E90267059BD6
:109190001B69002B02D0059B029A1A6105990020D9
:1091A000FFF730FF0346184607B0F0BD40FB030051
:1091B00000B585B00190019B002B04D109494FF403
:1091C000157006F0C3FC019B0393039B00221A77E2
:1091D00003990120FFF716FF0346184605B05DF816
:1091E00004FB00BF40FB030082B001900091019A94
:1091F000009BD31A23F07F43184602B0704700004B
:1092000008B5034800F08BFC0346184608BD00BFB4
:10921000B822002082B0EFF310830093009B0193EB
:1092200072B600BF019B184602B0704762B600BF1D
:1092300000BF704700B585B00190FFF7EBFF0390CA
:10924000164B9B68002B1BD1144B01229A60144BC8
:10925000D3F88020134B1340104A1360104B114A6F
:10926000C3F880200E4BD3F884300C4A53600C4B6B
:109270004FF0FF32C3F88420019B00221A7002E0F5
:10928000019B01221A70039B002B01D1FFF7CEFF37
:109290000023184605B05DF804FB00BFD42B002066
:1092A00000E100E0FC06FFBD00B585B003468DF887
:1092B0000730104B9B68002B16D09DF80730002B11
:1092C00012D1FFF7A7FF03900B4A0A4B1B681360EC
:1092D000094A084B5B685360064B00229A60039B67
:1092E000002B01D1FFF7A2FF0023184605B05DF85F
:1092F00004FB00BFD42B002000E100E000B583B0E8
:10930000019000F02BF80346012B03D005494320C0
:1093100006F01CFC0198FFF78DFF00BF03B05DF85D
:1093200004FB00BF9CFB030000B583B003468DF82F
:10933000073000F013F80346012B03D006495120F3
:1093400006F004FC9DF807301846FFF7ADFF00BF9C
:1093500003B05DF804FB00BF9CFB030084B0EFF397
:1093600005830193019BC3F308030393039B002B25
:109370000DD1EFF314830093009B0293029B03F043
:109380000103002B0CBF01230023DBB200E001230B
:10939000184604B07047000082B003468DF80730CD
:1093A0009DF90730002B0CDB9DF8073003F01F02FE
:1093B00005499DF907305B09012000FA02F241F8E6
:1093C000232000BF02B0704700E100E082B00346F6
:1093D0008DF807309DF90730002B0DDB9DF8073025
:1093E00003F01F0206499DF907305B09012000FACE
:1093F00002F2403341F8232000BF02B0704700BFA3
:1094000000E100E082B0034600918DF807309DF93D
:109410000730002B0ADB009BDAB20C499DF90730BC
:109420005201D2B20B4483F800230BE0009BDAB266
:1094300007499DF8073003F00F03043B5201D2B2F5
:109440000B441A7600BF02B0704700BF00E100E095
:1094500000ED00E000B583B003460A468DF8073002
:1094600013468DF806309DF80630012B03D99DF880
:109470000630032B0BD99DF80630042B03D99DF839
:109480000630072B03D908496B2006F05FFB9DF8D7
:1094900006209DF9073011461846FFF7B3FF00BFBD
:1094A00003B05DF804FB00BFF0FB030000B583B020
:1094B00003468DF807309DF907301846FFF76CFF1B
:1094C00000BF03B05DF804FB00B585B00190019BBF
:1094D000002B0AD0074B43F001030393019B9B0130
:1094E0000293039B0298984700E000BF05B05DF827
:1094F00004FB00BFD0FC030084B0039002910192F2
:10950000039B029A02F5A872019943F8221000BF4A
:1095100004B0704782B001900091019B009A02F55F
:10952000A87253F82230184602B0704782B00190FA
:109530000091019B009AC3F8042300BF02B070475A
:1095400082B001900091019B009AC3F8082300BFEC
:1095500002B0704782B001900B46ADF80230BDF802
:109560000230019A13441B68184602B0704784B059
:1095700001900B46ADF80230BDF80230019A134459
:1095800000221A60BDF80230019A13441B6803934D
:10959000039B00BF04B0704782B00190019BD3F8D9
:1095A0000435184602B0704700B583B001900091B1
:1095B000009BB3F5805F04D306494FF4BE7006F0FC
:1095C000C5FA019B009AC3F8082500BF03B05DF8F7
:1095D00004FB00BF14FC030082B001900B468DF821
:1095E00003309DF80320019B13441A4601231360A6
:1095F00000BF02B0704782B001900091019B009AB9
:10960000C3F8442300BF02B0704782B001900091BC
:10961000019B009AC3F8482300BF02B070470000C6
:1096200000B587B0039002910192039B002B03D1F8
:109630003349552006F08AFA029B002B03D13049AA
:10964000562006F083FA019B002B03D12C495720AA
:1096500006F07CFA039B5B7919462A4A019B42F883
:109660002130039B5B79284ADB0013441B79002BD4
:109670000ED008230593254A254BD31ADB081B047B
:1096800043F0020323491846FEF70EFB059B32E028
:10969000039B1A68029B1B8819461046FFF784FF3C
:1096A000039B93F90420029B9B7819461046FFF711
:1096B000D1FE039B93F904301846FFF7F7FE039B96
:1096C0005B79114ADB00134401221A71039B5B7919
:1096D00019460D4A039B42F83130002305930B4A8B
:1096E0000B4BD31ADB081B0443F003030A4918464B
:1096F000FEF7DAFA059B184607B05DF804FB00BFD9
:1097000038FC0300E02B0020E42B0020C0F703000E
:1097100088F7030080FC0300A4FC030000B583B0BD
:109720000190019B002B03D10649872006F00EFA19
:10973000019B1B6800211846FFF74EFF00BF03B0D6
:109740005DF804FB38FC030000B583B00190019B79
:10975000002B03D106498D2006F0F8F9019B1B6808
:1097600004211846FFF738FF00BF03B05DF804FB83
:1097700038FC030000B587B00390029101928DF888
:109780000330039B002B03D12149962006F0DEF91C
:109790004FF48032029B02FA03F30593029B50338D
:1097A0009BB29B00ADF81230019B23F07F430193E5
:1097B000039B1B6805991846FFF7C2FE039B1B68B5
:1097C00005991846FFF721FF039B1B68BDF812207F
:1097D00011461846FFF7CBFE039B1B68019A0299BE
:1097E0001846FFF789FE039B1B6805991846FFF78B
:1097F00002FF9DF80330002B05D0039B1B680599E1
:109800001846FFF793FE00BF07B05DF804FB00BFEA
:1098100038FC030000B585B00390029113468DF823
:109820000730039B002B03D10B49A92006F08EF9CA
:10983000039B1B6802991846FFF7DDFE9DF8073071
:10984000002B05D0039B1B6802991846FFF76EFE9C
:1098500000BF05B05DF804FB38FC030000B583B021
:1098600001900091019B002B03D10A49B32006F01F
:109870006DF9019B1B6800991846FFF7C6FE019B16
:109880001B6800991846FFF75BFE00BF03B05DF848
:1098900004FB00BF38FC030000B583B001900B4609
:1098A000ADF80230019B002B03D10F49BA2006F01E
:1098B0004DF9019B1B68BDF8022011461846FFF7C1
:1098C00049FE0346002B09D0019B1B68BDF802200E
:1098D00011461846FFF74BFE012300E0002318460F
:1098E00003B05DF804FB00BF38FC030082B00190B8
:1098F0000091019A009BD31A23F07F43184602B0CF
:109900007047000000B58BB0039002910192009364
:10991000039B002B03D15749CD2006F017F94FF4D4
:109920008032029B02FA03F30993029B50339BB2ED
:109930009B00ADF82230019B23F07F4301930999EE
:109940000398FFF78BFF039B1B681846FFF724FE65
:109950000790039B1B6802991846FFF7DBFD0690F2
:10996000039B1B68079A02991846FFF7C5FD039BE6
:109970001B68BDF8222011461846FFF7F8FD07992D
:109980000698FFF7B3FF0346012B0AD11020FFF71B
:109990009BFD039B1B68BDF8222011461846FFF76C
:1099A000E6FD039B1B681846FFF7F6FD0790079935
:1099B0000198FFF79BFF0590039B1B6809991846C8
:1099C000FFF719FE059B012B15D1039B1868019B1E
:1099D00001331A460299FFF78FFD1020FFF774FD3F
:1099E000039B1B681846FFF7D7FD0246079B93426F
:1099F00035D00D2339E0039B1B68019A0299184664
:109A0000FFF77AFD039B1B681846FFF7C5FD07901B
:109A1000019B013B07991846FFF768FF0590009BE3
:109A2000C3F1FF1303F57F43059A9A4201D90D2331
:109A30001BE0059B002B12D1039B1868019B01338F
:109A40001A460299FFF758FD039B1B681846FFF75B
:109A5000A3FD0246079B934201D00D2305E001229E
:109A600009990398FFF7D6FE002318460BB05DF85E
:109A700004FB00BF38FC030000B583B001900B4627
:109A80008DF803309DF803301A4602210198FFF744
:109A9000C1FE00BF03B05DF804FB00B583B00190C8
:109AA0004FF482710198FFF7F7FE0346184603B0A2
:109AB0005DF804FB00B583B0019000914FF4803253
:109AC000009B02FA03F319460198FFF7C7FE00BF97
:109AD00003B05DF804FB00B585B001900091009BD8
:109AE00050339BB29B00ADF80E30BDF80E301946D6
:109AF0000198FFF7D1FE0346184605B05DF804FB58
:109B000000B583B001900091019B1B680099184635
:109B1000FFF700FD0346184603B05DF804FB00B5EF
:109B200083B00190019B1B681846FFF735FD034683
:109B3000184603B05DF804FB00B583B00190019BAB
:109B400093F904301846FFF741FC00BF03B05DF8FD
:109B500004FB000008B5044B1B68044A1268104659
:109B6000984700BF08BD00BFE02B0020E42B002079
:109B700082B00190019B03F00303002B0CBF012373
:109B80000023DBB2184602B07047000000B585B074
:109B90000190002303930EE00B4A039B52F82330FD
:109BA000002B05D0084A039B52F8233001989847B0
:109BB000039B01330393039B032BEDD900BF00BF2D
:109BC00005B05DF804FB00BFFC2B002082B00190C3
:109BD0000091019B1B78013B052B61D801A252F833
:109BE00023F000BFFD9B0200059C02002B9C02009D
:109BF0005D9C02007D9C0200999C0200009B00225B
:109C00001A704EE0009B01221A70019B1A89009B7A
:109C10009A81019B9A88009BDA81019BDA68009BFC
:109C20009A60009B00221A743BE0009B02221A708B
:109C3000019B1A89009B9A81019B9A88009BDA817B
:109C4000019BDA68009B9A60019B9B7D062B0CBFF1
:109C500001230023DAB2009B1A7422E0009B032246
:109C60001A70019BDA88009B9A81019B1A89009BDC
:109C7000DA81019BDA68009B9A6012E0009B042263
:109C80001A70019BDA88009B9A81009B0022DA817E
:109C9000009B00229A6004E0009B05221A7000E0FD
:109CA00000BF00BF02B0704784B001900091019BDB
:109CB0000393039A009B9A4206D2039B1B68B3F15D
:109CC000FF3F01D0012300E0002303F00103DBB2DA
:109CD000184604B0704782B00190019B5B88033343
:109CE0009B00019A1344184602B0704700B583B038
:109CF000019000910198FFF7EEFF0246009B93420E
:109D000001D2022311E0019B9B884FF6FF72934220
:109D100008D0019B1B88002B04D0019B9B68B3F1EA
:109D2000FF3F01D1012300E00023184603B05DF896
:109D300004FB000000B583B00190019B002B13D001
:109D40000D4BDB681A46019B93420DD30A4B1B69EE
:109D50001A46019B934207D80198FFF709FF034673
:109D6000002B01D0012300E0002303F00103DBB24C
:109D7000184603B05DF804FB6022002082B0019019
:109D8000019B002B04D0019B1B680B4A934201D01E
:109D900003230DE0019B04331B68084A934204D05F
:109DA000074A934203D1012302E0002300E003238A
:109DB000184602B0704700BFDEC0ADDEFE011EF1E6
:109DC000FF011EF184B00190019B1B68B3F1FF3FBE
:109DD00006D0019B1B680E4A934201D0002314E079
:109DE000012303930CE0039B9B00019A13441B681F
:109DF000B3F1FF3F01D0002307E0039B013303933E
:109E0000039BB3F5806FEED30123184604B070476F
:109E1000DEC0ADDE82B003460A46ADF8063013461A
:109E2000ADF80430BDF80620134913469B001344D7
:109E30009B000B4408331A88BDF804301344ADF876
:109E40000430BDF806200C4913469B0013449B00C8
:109E50000B440A331A88BDF804301344ADF80430BB
:109E6000BDF80430B3F5806F94BF01230023DBB24B
:109E7000184602B0704700BFAC2C002084B001909F
:109E8000009148F2096303930023ADF80A3027E0FC
:109E9000BDF80A20164913469B0013449B000B444F
:109EA00004331B68009A9A4215D9BDF80A2010495C
:109EB00013469B0013449B000B4404331B6803F5BB
:109EC0008053009A9A4206D200230393019BBDF867
:109ED0000A201A8008E0BDF80A300133ADF80A30D4
:109EE000BDF80A30012BD3D9039B184604B0704744
:109EF000AC2C002000B589B0039002910192039B25
:109F000003F580530693039B08330393029B0222BD
:109F10001A80039B079332E006990798FFF7E6FE45
:109F200003468DF817309DF81730002B0AD1079B98
:109F30009A68184B1B689A4213D9079B9B68154A6D
:109F400013600EE0019B002B02D0019B01221A70CE
:109F50009DF81730022B04D1029B4FF480621A80C7
:109F600014E0029B1A88079B5B8813449BB203335F
:109F70009AB2029B1A800798FFF7ADFE07900699E8
:109F80000798FFF791FE0346002BC5D109B05DF895
:109F900004FB00BF0C2C002082B001900091009BBC
:109FA0009B7D022B09D9019B1A89009BDB881344F6
:109FB0009BB203339AB2019B1A81019B5A89009B81
:109FC000DB88D31A9BB2033B9AB2019B5A8100BF34
:109FD00002B0704700B583B0074B1B6819460023D9
:109FE00000930823054A064802F04CFD0346184634
:109FF00003B05DF804FB00BFD42C00201CFD03005F
:10A000006022002000B585B00390039900230093DF
:10A010000823044A044802F035FD0346184605B0FB
:10A020005DF804FB24FD03006022002000B585B02C
:10A0300003460091ADF8063000238DF80F30BDF8CF
:10A0400006300333ADF80A30BDF80A3040F2FE3274
:10A05000934202D948F208634BE00023ADF80C307C
:10A060003BE0BDF80C20254913469B0013449B00A0
:10A070000B441B78002B2BD1BDF80A20BDF80C3007
:10A0800011461846FFF7C6FE0346002B20D00123D9
:10A090008DF80F30009BBDF80C201A80BDF80C2005
:10A0A000164913469B0013449B000B440A3319883E
:10A0B000BDF80C20BDF80A300B4498B20F49134686
:10A0C0009B0013449B000B440A3302461A8008E0AD
:10A0D000BDF80C300133ADF80C30BDF80C30012B5D
:10A0E000BFD99DF80F30002B01D0002301E048F2CA
:10A0F0000663184605B05DF804FB00BFAC2C0020D9
:10A1000082B003460A46ADF806301346ADF8043077
:10A11000BDF804200D4913469B0013449B000B44DB
:10A120000A331A88BDF80630D31A9BB2BDF8042052
:10A13000033B98B2054913469B0013449B000B4414
:10A140000A3302461A8000BF02B07047AC2C0020D0
:10A1500008B50121024801F01CFF0346184608BD5E
:10A160000C2C002000B585B003460091ADF80630F8
:10A17000BDF80620244913469B0013449B000B4462
:10A1800004331B6803F580530293009B1B68039301
:10A19000039B002B04D00398FFF79DFD039026E05E
:10A1A000BDF80620184913469B0013449B000B443E
:10A1B00004331B680833039319E002990398FFF7EF
:10A1C00095FD0346022B10D0022B10DC002B02D091
:10A1D000012B05D00BE0009B039A1A6001230EE0CF
:10A1E0000398FFF778FD039001E0002307E0029950
:10A1F0000398FFF759FD0346002BDED100231846D4
:10A2000005B05DF804FB00BFAC2C002000B585B0A4
:10A2100001900091019B5B681846FFF78BFD034698
:10A22000002B19D0019B1A89244B1B899A4213D108
:10A23000019B1A68019B5B689B689A420CD1019B49
:10A240005B6819460098FFF719FE0346002B0CBF08
:10A2500001230023DBB22CE0009B00221A8023E0C4
:10A260000023029310E0029B0393039B9A68019BD7
:10A270001B689A4208D1029A019B5A600F4B1A89B7
:10A28000019B1A81012314E0009B1B8802AA11463E
:10A290001846FFF767FF0346002BE4D1009B1B889D
:10A2A00001339AB2009B1A80009B1B88012BD7D9DF
:10A2B0000023184605B05DF804FB00BFDC2C00202D
:10A2C00000B587B00390029101920093324B1B7846
:10A2D000DBB283F00103DBB2002B02D048F2016352
:10A2E00055E0019B002B02D0009B002B49D148F286
:10A2F00004634CE0009B9B881946284A0B469B0050
:10A300000B449B0013441B78002B33D124E0009BAB
:10A310001B680593039B002B06D0059B9A88039B23
:10A320001B889A4200D017E0029B002B06D0059BA9
:10A330001A88029B1B889A4200D00DE0059B9A6800
:10A34000019B1A60009B1A68019B5A60144B1A8982
:10A35000019B1A8100231AE0009B9B88009A1146FA
:10A360001846FFF7FFFE0346002BD0D1009B0022CA
:10A370001A6000E000BF009B9B8801339AB2009BEB
:10A380009A80009B9B88012BB4D948F20963184638
:10A3900007B05DF804FB00BFEC2B0020AC2C0020C4
:10A3A000DC2C002000B587B0029101920093034697
:10A3B000ADF80E30BDF80E20324913469B00134411
:10A3C0009B000B4404331B6808330593BDF80E2033
:10A3D0002C4913469B0013449B000B4404331B6819
:10A3E00003F58053049342E004990598FFF77EFC3F
:10A3F0000346022B25D0022B38DC002B16D0012B74
:10A4000034D1019B1B8801339AB2019B1A80009BB7
:10A410001A88059B5B8813449BB203339AB2009B56
:10A420001A800598FFF757FC059020E0029B1B88D7
:10A4300001339AB2029B1A800598FFF74CFC0590F5
:10A4400015E0019B1B8801339AB2019B1A80009B87
:10A450001A880499059BCB1A9B109BB213449AB29D
:10A46000009B1A80089B01221A7007E000BF049924
:10A470000598FFF719FC0346002BB5D107B05DF82E
:10A4800004FB00BFAC2C002000B585B00190084B48
:10A490000199184601F0C8FB03901C220021039883
:10A4A00015F0C1F8039B184605B05DF804FB00BF2A
:10A4B0009C2C002000B583B00190044B01991846F4
:10A4C00001F0CBFB00BF03B05DF804FB9C2C002027
:10A4D00000B583B00190054B0199184601F0D1FBFE
:10A4E0000346184603B05DF804FB00BF9C2C002017
:10A4F00000B583B00190044B0199184601F0DAFBD6
:10A5000000BF03B05DF804FB9C2C002008B50A4B8B
:10A510001B68002B04D109494FF4247005F016FB89
:10A520000121054801F04DFD0346002B14BF012316
:10A530000023DBB2184608BDF42B0020D8FC030032
:10A5400000B587B0002305930023ADF81230032334
:10A55000ADF8103000238DF80F300023ADF80C302B
:10A56000F7E0BDF80C301A03824BDB68134402930A
:10A570000298FFF703FC03468DF807309DF807307B
:10A58000032B08D0032B00F3DE80002B65D0012BBA
:10A5900000F09880D7E00298FFF714FC0346002BE8
:10A5A0003BD0754B1B68002B29D0BDF81220734996
:10A5B00013469B0013449B000B4402221A70BDF803
:10A5C00012206E4913469B0013449B000B44043336
:10A5D000029A1A60BDF81220684913469B00134482
:10A5E0009B000B44083302221A80654ABDF81230E2
:10A5F0005380BDF812300133ADF8123008E05E4AE6
:10A60000029B13605C4B02229A8001238DF80F306D
:10A61000059B43F00103059396E0BDF81030013B24
:10A62000ADF81030BDF81220544913469B00134476
:10A630009B000B440433029A1A60BDF812204F4964
:10A6400013469B0013449B000B4403221A70BDF871
:10A6500012300133ADF8123076E0BDF812204749D0
:10A6600013469B0013449B000B4400221A70BDF854
:10A670001220424913469B0013449B000B440433B1
:10A68000029A1A60BDF8122013469B0013449B00E7
:10A6900008333A4A9918BDF8122013469B00134418
:10A6A0009B001033354A13441A460298FFF722FCE8
:10A6B000059B43F002030593BDF812300133ADF85A
:10A6C000123041E09DF80F30002B29D0BDF8122048
:10A6D0002A4913469B0013449B000B4402221A7024
:10A6E000BDF81220244B1968244813469B001344DC
:10A6F0009B00034404331960BDF812201F49134620
:10A700009B0013449B000B44083302221A801C4A0E
:10A71000BDF812305380BDF812300133ADF812305D
:10A72000154A029B1360002216490298FFF7E2FBCC
:10A73000114B9B88022B01D1042300E00823059ACA
:10A740001343059300E000BFBDF80C300133ADF8B2
:10A750000C30BDF80C30022B7FF603AFBDF8103083
:10A76000012B01D800230593059BDBB2184607B0E7
:10A770005DF804FB60220020D42C0020AC2C0020CB
:10A78000DC2C0020D82C002000B587B0039002916B
:10A79000039B02229A750299039B1A1D00230093C2
:10A7A0000423074802F06EF90590059B002B01D1A8
:10A7B000002301E048F20D63184607B05DF804FB82
:10A7C0006022002000B587B003900291039B1B69B3
:10A7D000002B01D0032200E00122039B9A75029B0B
:10A7E00008331946039B03F10C0200230093042352
:10A7F000074802F047F90590059B002B01D1002383
:10A8000001E048F20D63184607B05DF804FB00BF95
:10A810006022002000B587B003900291039B1B7853
:10A82000032B01D1052200E00622039B9A75029BAF
:10A8300004331946039B03F1080200230093042309
:10A84000074802F01FF90590059B002B01D100235A
:10A8500001E048F20D63184607B05DF804FB00BF45
:10A860006022002000B587B003900B46ADF80A3097
:10A8700003990023009304230D4A0E4802F002F9C5
:10A880000590059B002B02D048F20D630BE0BDF84C
:10A890000A20094913469B0013449B000B441033C4
:10A8A00001221A700023184607B05DF804FB00BFB0
:10A8B0002CFD030060220020AC2C002000B589B0E4
:10A8C000019002AB00221A605A609A60019BDB681B
:10A8D00002930DF1160202AB11461846FFF796FCE3
:10A8E0000346002B12D0039B0693069B9A88019B7C
:10A8F000DA80069B1A88019B1A81039BBDF81620FB
:10A9000011461846FFF7AEFF079002E048F20963D0
:10A910000793079B184609B05DF804FB00B587B0A4
:10A920000190019B981D02AA0D4B0021FFF7C8FC66
:10A930000590059B002B08D1039B094A928811467C
:10A940001846FFF78FFF059004E008220021044815
:10A9500014F069FE059B184607B05DF804FB00BFC4
:10A96000EC2C002000B587B003900291039B0122DC
:10A970009A75029B0C331846039B1A69039BDB886C
:10A980009B00002100910146074802F07BF80590EA
:10A99000059B002B01D1002301E048F20D6318460E
:10A9A00007B05DF804FB00BF6022002082B0184BA6
:10A9B0001B8901339AB2164B1A81154B00225A801B
:10A9C000134B00221A730023ADF8063018E0BDF8CF
:10A9D0000620104913469B0013449B000B441A7831
:10A9E000BDF80630002A0CBF01220022D1B2084A6D
:10A9F00013440A469A72BDF806300133ADF80630AA
:10AA0000BDF80630012BE2D900BF00BF02B070478D
:10AA1000DC2C0020AC2C002084B0019000238DF8A9
:10AA20000F300023ADF80C3031E0BDF80C301C4A7B
:10AA300013449B7A002B25D0BDF80C30184A1344E0
:10AA400000229A72BDF80C20164913469B0013444D
:10AA50009B000B440C331B68002B13D1BDF80C205A
:10AA6000104913469B0013449B000B4410331B7882
:10AA7000002B07D0019BBDF80C201A8001238DF814
:10AA80000F3008E0BDF80C300133ADF80C30BDF8E4
:10AA90000C30012BC9D99DF80F30184604B070470F
:10AAA000DC2C0020AC2C002008B5084B05221A70C5
:10AAB000074B02229A80064B1B681946002301228D
:10AAC000044802F0C1F80346184608BDDC2C0020FB
:10AAD000D42C00206022002000B583B0164B5B8888
:10AAE000ADF80230BDF80220144913469B00134410
:10AAF0009B000B440C331B68002B14D10E4B04221B
:10AB00001A70BDF802200D4913469B0013449B00A8
:10AB10000B4404331B68194600230122084802F045
:10AB200093F8019002E0FFF7BFFF0190019B1846E8
:10AB300003B05DF804FB00BFDC2C0020AC2C00202F
:10AB40006022002000B587B0104B5B680593104B66
:10AB50001A680F4B9B889B0013440493059B5B88EA
:10AB60000333ADF80E30094B03221A700499074BDA
:10AB70005A68BDF80E309B0000200090054801F097
:10AB800081FF0346184607B05DF804FBDC2C00206B
:10AB9000D42C00206022002000B583B00A4B5B88D3
:10ABA0000A491846FFF7DEFA0346002B03D0FFF7E9
:10ABB000C9FF019002E0FFF78FFF0190019B18464B
:10ABC00003B05DF804FB00BFDC2C0020E02C00206B
:10ABD00008B50A4B06221A70084B5B881946084ACA
:10ABE0000B469B000B449B00134404331B68184620
:10ABF000FFF708FA0346184608BD00BFDC2C00200A
:10AC0000AC2C002008B5054B07221A70034B00221C
:10AC10005A60FFF7DFF90346184608BDDC2C002018
:10AC200008B50D48FFF7F8FE034683F00103DBB2D9
:10AC3000002B0BD0094B00221A70084B00225A80BF
:10AC4000064B00225A6041F61D5302E0FFF7A4FFB5
:10AC50000346184608BD00BFDE2C0020DC2C002077
:10AC600082B0094B5B680193019B5B880333ADF8AD
:10AC70000230064B9A88BDF8023013449AB2034B57
:10AC80009A8000BF02B07047DC2C0020D42C00203A
:10AC900082B01E4B1B6801931D4B5B8819461D4AF1
:10ACA0000B469B000B449B00134404331B68174A5C
:10ACB0001360174B5B881946164A0B469B000B44E2
:10ACC0009B0013440433019A1A60114B5B881946A8
:10ACD0000E4B98880F4A0B469B000B449B00134475
:10ACE000083302461A80094B02229A80084B5B887F
:10ACF0001946084A0B469B000B449B001344103333
:10AD000000221A7000BF02B0704700BFD42C002090
:10AD1000DC2C0020AC2C002008B51A4B1B78072B2C
:10AD20002CD801A252F823F049AD02007DAD0200FB
:10AD30007DAD020055AD020061AD02006DAD0200B7
:10AD40006DAD020075AD0200FFF730FE0D4B012224
:10AD50001A7014E0FFF784FF0A4B02221A700EE00B
:10AD6000FFF796FF074B06221A7008E0054B0722F3
:10AD70001A7004E0034B01221A7000E000BF00BF0C
:10AD800008BD00BFDC2C002000B587B00190009109
:10AD900048F20E630593019B002B05D0634B002204
:10ADA0005A604FF40643BCE0009B1B79032B00F272
:10ADB000AB8001A252F823F0C9AD0200D7AD02006A
:10ADC00065AE020085AE0200009B01221A71FFF7FA
:10ADD00001F905909BE000238DF813300023ADF8B6
:10ADE00010302BE0BDF81020514913469B0013444E
:10ADF0009B000B441B78022B1BD1BDF810204C4943
:10AE000013469B0013449B000B4400221A7001233D
:10AE10008DF81330BDF81020454913469B001344AC
:10AE20009B000B4404331B681846FFF7EBF80590B2
:10AE300008E0BDF810300133ADF81030BDF8103027
:10AE4000012BCFD99DF8133083F00103DBB2002B27
:10AE50005CD0364B01221A70344B00225A6041F606
:10AE60001D535EE0009B00221A71324B02229A8031
:10AE7000304B1B681946002301222F4801F0E4FEE5
:10AE8000059044E0009B00221A712A4B1B6818466B
:10AE9000FFF7B8F80590294B5B88ADF80E30254BCD
:10AEA0001B680293BDF80E20214913469B001344F2
:10AEB0009B000B4404331B681E4A1360BDF80E2030
:10AEC0001B4913469B0013449B000B440433029A16
:10AED0001A60BDF80E20174B9888154913469B0041
:10AEE00013449B000B44083302461A80114B022284
:10AEF0009A80BDF80E200E4913469B0013449B0018
:10AF00000B4400221A7002E000BF00E000BF059B66
:10AF1000002B05D0054B00225A6048F20D6300E07B
:10AF20000023184607B05DF804FB00BFEC2B00209F
:10AF3000AC2C0020D42C002060220020DC2C00202F
:10AF400000B587B001900091009B9B8A1A4613467A
:10AF50009B0013449B003B4A13440493019B002B2A
:10AF600006D000990498FFF717F84FF4064364E001
:10AF7000049B5A68049B1B899B0013440393009B0A
:10AF80009B7D062B4DD801A252F823F0D1AF0200D1
:10AF9000F5AF0200DDAF0200E9AF0200A9AF020089
:10AFA00001B002001BB00200274B00225A60009B38
:10AFB0009B69254A136025492348FFF727F9034673
:10AFC00083F00103DBB2002B02D048F2096334E0C6
:10AFD00003990098FFF7D8FB059026E003990098A5
:10AFE000FFF7F0FB059020E003990098FFF7BAFC0B
:10AFF00005901AE003990098FFF70CFC059014E007
:10B00000009B06229A75104B5B68104A1288114605
:10B010001846FFF727FC059007E041F61D530593FE
:10B0200003E048F20E63059300BF059B002B03D09D
:10B0300000990498FEF7B0FF059B184607B05DF82D
:10B0400004FB00BFAC2C0020F42C0020002D0020BD
:10B0500000B585B001900091019B002B02D04FF408
:10B06000064329E0009B1B79022B1BD0022B1DDC21
:10B07000002B02D0012B08D018E0009B02221A718D
:10B080000098FFF71BFC039015E00098FFF746FCC3
:10B090000390039B48F2096293420BD141F61D5382
:10B0A000039307E041F61D53039304E048F20E6357
:10B0B000039300E000BF039B184605B05DF804FB56
:10B0C00000B585B00190019B002B02D04FF40643E0
:10B0D0003DE0214B1B7B002B03D01F4B00221A733A
:10B0E00001E0FFF719FE1C4B1B78013B062B29D80A
:10B0F00001A252F823F000BF15B102001DB10200F9
:10B1000025B102002DB1020045B1020035B10200A7
:10B110003DB10200FFF784FD039017E0FFF73CFD0F
:10B12000039013E0FFF70EFD03900FE0FFF7D4FC50
:10B1300003900BE0FFF74CFD039007E0FFF762FD83
:10B14000039003E048F20E63039300BF039B18468D
:10B1500005B05DF804FB00BFDC2C002000B589B011
:10B160000190404B1B68002B05D13F48FFF7B0F919
:10B1700003463C4A13603B4B1B68002B04D13B4900
:10B1800040F29E5004F0E2FC364B1B681B78013BFA
:10B19000052B2CD801A252F823F000BFB5B1020054
:10B1A000C5B10200C5B10200D5B10200D5B102009F
:10B1B000E5B102002B4B1B6819460198FFF7E4FD2F
:10B1C000019018E0274B1B6819460198FFF7B8FE5D
:10B1D000019010E0234B1B6819460198FFF738FFD8
:10B1E000019008E00198FFF76BFF019003E048F23F
:10B1F0000E63019300BF019B002B2BD003AB0022F9
:10B200001A605A609A60DA601A61019B41F61D5219
:10B21000934201D0019B00E000230493114B1B6873
:10B2200003AA11461846FEF7D1FC03AB1846FEF7F9
:10B23000ADFC0C4B00221A60002301930A48FFF773
:10B2400057F9FFF763F9034683F00103DBB2002BE4
:10B2500002D186E700BF00E000BF00BF09B05DF883
:10B2600004FB00BF042D0020082D0020D8FC0300A3
:10B2700008B50121054800F074FE0346002B02D1F9
:10B280000020FFF76BFF00BF08BD00BFF42B0020BC
:10B2900000B583B00190019B5B681846FFF75EFF25
:10B2A00000BF03B05DF804FB00B58BB003900291C2
:10B2B00001928DF803300023ADF824300023ADF85F
:10B2C0002630534B1B78DBB283F00103DBB2002B3B
:10B2D00002D048F2016397E0029B002B02D148F2B2
:10B2E000046391E0029B1B884FF6FF72934203D0E8
:10B2F000029B5B88002B02D148F2036384E0029B2F
:10B300005B681846FEF734FC034683F00103DBB2AA
:10B31000002B02D048F2026376E0019B002B11D192
:10B32000029B9B68ADF826300DF11A02BDF826305D
:10B3300011461846FEF77AFE0890089B002B09D0AC
:10B34000089B61E0019B1B88ADF81A30019B5B886C
:10B35000ADF8263005AB1846FFF796F80790079B27
:10B36000002B0AD1BDF81A20BDF826301146184628
:10B37000FEF7C6FE48F2076346E0079B9DF80320F0
:10B380001A70079B00229A75BDF81A20079B9A82B3
:10B39000029B5A68079B1A61FEF7DAFE0246079B7A
:10B3A000DA60029B1A88079B1A81029B5A88079BC6
:10B3B0009A80079BBDF82620DA809DF80330032B86
:10B3C00006D1079B04229A75039B1A68079B9A6112
:10B3D000079BBDF824205A8105AB1846FFF76AF891
:10B3E000039B002B0DD0039B00225A60079BDA6859
:10B3F000039B1A60039B00229A72064B1A89039BD7
:10B400001A81FFF735FF002318460BB05DF804FBE7
:10B41000EC2B0020DC2C002000B585B001900C4BFB
:10B420001B68042B03D148F20B6303930BE0084B1A
:10B430001B680849019A41F823200121044800F0C3
:10B44000A8FD00230393039B184605B05DF804FB99
:10B45000F82B0020FC2B002084B040F6F8731B680A
:10B46000B3F1FF3F02D10F4B1B6802E040F6F873C7
:10B470001B6803934FF080531B6902934FF0805376
:10B480005B690193039BB3F1FF3F04D1019B029AD7
:10B4900002FB03F300E0039B0093009B184604B0FB
:10B4A000704700BF1410001000B583B04FF4405334
:10B4B0000193FFF7D1FF0346054A1361044B1A6954
:10B4C000019BD31A024AD36000BF03B05DF804FBAE
:10B4D0006022002008B5FFF7E7FF00220349044877
:10B4E00001F088FA0346184608BD00BF18000400A2
:10B4F0006022002008B504481C238C22034900F078
:10B500004CFB00BF08BD00BF9C2C0020102C00206D
:10B5100000B58BB002AB00221A605A609A60DA6004
:10B520001A61424B1B78DBB2002B05D002AB1846E8
:10B53000FEF72CFB002375E03D4800F05AFD034662
:10B54000002B01D000236DE0FFF7C4FF0990099B99
:10B55000002B01D0099B65E0FFF7CCFFFEF7F0FF61
:10B5600003468DF823309DF82330062B08D0062B98
:10B5700012DC002B01D0022B0ED148F20A6351E0FD
:10B580002A4B01221A70294B00225A6002AB18463E
:10B59000FEF7FCFA002345E000BF01AB1846FEF7BA
:10B5A00073FF0790079B002B02D148F2076339E035
:10B5B000079B01221A709DF82330013B0A2B29D8E2
:10B5C00001A252F823F000BFF5B5020015B6020043
:10B5D000F5B5020015B602000DB6020015B6020060
:10B5E0000DB6020015B60200FDB5020005B6020058
:10B5F000FDB50200079B00221A710CE0079B032295
:10B600001A7108E0079B02221A7104E0079B0122CD
:10B610001A7100E000BF01AB1846FEF74BFFFFF7C1
:10B6200027FE002318460BB05DF804FBEC2B00202E
:10B63000F02B002000B585B001900091019B002BFC
:10B6400002D0009B002B02D148F204632AE00DF1E6
:10B650000A0319460198FEF7D9FD0346002B1FD0B7
:10B66000019B5B680393BDF80A301A4613469B00A2
:10B6700013449B0008330D4A134404330121184638
:10B6800000F087FC009B039A1A60019B5B6803F142
:10B690000C02009B5A60019B01229A72002301E078
:10B6A00048F20963184605B05DF804FBAC2C002095
:10B6B00000B585B00190019B002B02D148F20463D4
:10B6C0003BE00DF10A0319460198FEF79FFD034682
:10B6D000002B2ED0BDF80A3019461A4A0B469B00A3
:10B6E0000B449B0013440C331B68002B1DD0019BA3
:10B6F0009B7A002B19D0BDF80A301A46114913461F
:10B700009B0013449B000B440C331B68591E0D48CF
:10B7100013469B0013449B0003440C331960019BA8
:10B7200000229A720023039306E048F20563039314
:10B7300002E048F209630393039B184605B05DF8E5
:10B7400004FB00BFAC2C002000B583B00190009139
:10B750000223002200990198FFF7A6FD0346184630
:10B7600003B05DF804FB00B583B001900091019B2C
:10B77000002B02D148F2046306E003230022009963
:10B780000198FFF791FD0346184603B05DF804FBEE
:10B7900000B585B00346ADF806301A4B1B78DBB216
:10B7A00083F00103DBB2002B02D048F2016324E0F6
:10B7B000BDF806304FF6FF72934202D148F20363A0
:10B7C0001BE002AB1846FEF75FFE0390039B002BC5
:10B7D00002D148F2076310E0039B05221A70039B15
:10B7E00001221A71039BBDF80620DA8002AB1846CD
:10B7F000FEF760FEFFF73CFD0023184605B05DF83C
:10B8000004FB00BFEC2B002000B583B0154B1B7868
:10B81000DBB283F00103DBB2002B02D048F20163FC
:10B820001BE06B461846FEF72FFE0190019B002B94
:10B8300002D148F2076310E0019B06221A706B46A2
:10B840001846FEF737FE084B1B78002B02D0064B3C
:10B8500001221A73FFF70CFD0023184603B05DF8B0
:10B8600004FB00BFEC2B0020DC2C002000B585B0D1
:10B87000029201930346ADF80E300B46ADF80C3042
:10B8800003A90DF10E00019B029AFEF719FD034674
:10B89000184605B05DF804FB00B585B0034602917B
:10B8A0000192ADF80E300DF10E01019B029A0020BD
:10B8B000FEF706FD0346184605B05DF804FB00B52B
:10B8C00085B0034602910192ADF80E300DF10E00E5
:10B8D000019B029A0021FEF7F3FC0346184605B0CF
:10B8E0005DF804FB82B001900091019B002B02D017
:10B8F000009B002B02D148F2046304E0019B1A680C
:10B90000009B1A600023184602B0704710B586B03D
:10B9100003904FF48063ADF814300023ADF812307B
:10B920004F4B1B78DBB283F00103DBB2002B02D05C
:10B9300048F2016391E0039B002B02D148F20463BB
:10B940008BE012220021039813F06DFE039B03226B
:10B950001A800023ADF816307AE0BDF81620414970
:10B9600013469B0013449B000B4408331988BDF811
:10B9700016203C4813469B0013449B0003440A33A3
:10B980001B880B44ADF81030BDF81620354913461E
:10B990009B0013449B000B4404331B681846FEF7BE
:10B9A000EDF90346032B05D1039B1B88013B9AB29B
:10B9B000039B1A80BDF816202A4913469B001344A6
:10B9C0009B000B440C331968039B5A888BB21344B9
:10B9D0009AB2039B5A80039B1989BDF8162021480F
:10B9E00013469B0013449B0003440A331B880B44FB
:10B9F0009AB2039B1A81039B5A89BDF810301344F5
:10BA00009AB2039B5A81BDF81420BDF81030D31AA6
:10BA1000ADF81230039B9B89BDF812209A4203D9DE
:10BA2000039BBDF812209A81039B191D039B9A1D4D
:10BA3000039B03F10E04039B1033BDF81600009323
:10BA40002346FEF7AFFCBDF816300133ADF81630D3
:10BA5000BDF81630012B80D90023184606B010BD62
:10BA6000EC2B0020AC2C002086B001900091019BB3
:10BA700053E8011F8AB2D88902449889824228BFBC
:10BA8000121A1889824202BFBFF32F8F002307E0EA
:10BA9000C2EA010243E801200028E9D14FF0010386
:10BAA0008DF80F30059002910492029A009B1A6063
:10BAB0009DF80F30DBB2184606B0704784B0019095
:10BAC000019951E8013FC3EA034341E80132002AEA
:10BAD000F7D10392029300BF04B0704786B0019083
:10BAE0000091019B53E8021F1FFAA1F2D8888242FD
:10BAF00002BFBFF32F8F00230DE0D889024498893D
:10BB0000824228BF121AC1EA024243E802200028FA
:10BB1000E8D14FF001038DF80F30059002910492A7
:10BB2000029A009B1A609DF80F30DBB2184606B0EF
:10BB3000704784B00190019951E8023FC3EA234362
:10BB400041E80232002AF7D10392029300BF04B009
:10BB5000704786B00190019B53E8021FDA88B1EB71
:10BB6000314F4FF0000017BF89B242EA024241EA6A
:10BB7000024204E05968B1EB314F08BF012043E8AD
:10BB800002210029E8D18DF80F00059104929DF85B
:10BB90000F30DBB2184606B0704784B003900291B4
:10BBA00011461A460B46ADF806301346ADF8043080
:10BBB000029B002B01D10E231FE0BDF80630BDF81B
:10BBC0000420B3FBF2F101FB02F29B1A9BB2002BA3
:10BBD00001D0092311E0039B029A1A60039B002203
:10BBE0005A60039B00229A60039BBDF806209A814D
:10BBF000039BBDF80420DA810023184604B0704787
:10BC000000B585B001900198FFF7A3FF03468DF8BA
:10BC10000F309DF80F30002B01D0002300E01123DE
:10BC2000184605B05DF804FB00B585B001900091A1
:10BC3000009B19460198FFF717FF0346002B07D01A
:10BC4000019B1B68009A128813440393039B00E036
:10BC50000023184605B05DF804FB00B583B00190E1
:10BC60000091009B1A88009B5B889A4204D101983E
:10BC7000FFF724FF012300E00023184603B05DF81E
:10BC800004FB00B585B001900091009B1946019816
:10BC9000FFF724FF0346002B07D0019B1B68009A87
:10BCA000528813440393039B00E00023184605B019
:10BCB0005DF804FB00B583B001900091009B1A88E9
:10BCC000009B5B889A4204D10198FFF732FF012361
:10BCD00000E00023184603B05DF804FB00B585B012
:10BCE00001900091009B5B099B00019A1A44009B04
:10BCF00003F01F03012101FA03F31946104600F077
:10BD0000E8F8039000BF05B05DF804FB00B583B010
:10BD100001900091009B5B099B00019A1A44009BD3
:10BD200003F01F03012101FA03F31946104600F046
:10BD3000B8F80246009B03F01F0322FA03F303F056
:10BD40000103002B14BF01230023DBB2184603B00C
:10BD50005DF804FB00B585B001900091009B5B0984
:10BD60009B00019A1A44009B03F01F03012101FA72
:10BD700003F3DB431946104600F0DBF8039000BFE5
:10BD800005B05DF804FB82B001900091009B5B0957
:10BD90009B00019A13441A68009B03F01F0322FAC8
:10BDA00003F303F00103002B14BF01230023DBB2D4
:10BDB000184602B0704700B58DB001900091002385
:10BDC0000B934BE00B9B9B00019A13441B68DB43D6
:10BDD0000793079B93FAA3F30693069B0893089B8C
:10BDE000002B01D1202303E0089BB3FA83F3DBB2DD
:10BDF0000A932BE00B9B5B010A9A13440993099A5F
:10BE0000009B9A4226D209990198FFF77FFF0346CB
:10BE100083F00103DBB2002B01D0099B26E00B9BD2
:10BE20009B00019A13441B68DB430493049B93FA21
:10BE3000A3F30393039B0593059B002B01D12023C0
:10BE400003E0059BB3FA83F3DBB20A930A9B1F2B33
:10BE5000D0D900E000BF0B9B01330B93009B013B4B
:10BE60005B0901330B9A9A42ACD3009B18460DB084
:10BE70005DF804FB10B487B001900091019B009A1B
:10BE800053E8004F104643E8000191F0000FF7D14E
:10BE9000059404900391059B184607B05DF8044B88
:10BEA000704710B487B001900091019B009A53E84D
:10BEB000004F44EA020043E8000191F0000FF6D180
:10BEC000059404900391059B184607B05DF8044B58
:10BED000704710B487B001900091019B009A53E81D
:10BEE000004F44EA020043E8000191F0000FF6D150
:10BEF000059404900391049B184607B05DF8044B29
:10BF0000704710B487B001900091019B009A53E8EC
:10BF1000004F04EA020043E8000191F0000FF6D15F
:10BF2000059404900391059B184607B05DF8044BF7
:10BF3000704710B487B001900091019B009A53E8BC
:10BF4000004F04EA020043E8000191F0000FF6D12F
:10BF5000059404900391049B184607B05DF8044BC8
:10BF6000704710B487B001900091019B009A53E88C
:10BF7000004F04EB020043E8000191F0000FF6D1FE
:10BF8000059404900391059B184607B05DF8044B97
:10BF9000704710B487B001900091019B009A53E85C
:10BFA000004F04EB020043E8000191F0000FF6D1CE
:10BFB000059404900391049B184607B05DF8044B68
:10BFC000704710B487B001900091019B009A53E82C
:10BFD000004FA4EB020043E8000191F0000FF6D1FE
:10BFE000059404900391049B184607B05DF8044B38
:10BFF000704700B583B0019001210198FFF751FF10
:10C000000346184603B05DF804FB00B583B0019009
:10C0100001210198FFF75DFF0346184603B05DF864
:10C0200004FB00B583B0019000210198FFF769FF80
:10C030000346184603B05DF804FB000000B583B06A
:10C0400001900B468DF80330019B002B03D108496A
:10C05000E82003F07BFD019BDA689DF8033001992D
:10C06000098A01FB03F31344184603B05DF804FB8F
:10C0700030FD030000B583B001900091019B002BBF
:10C0800003D10849F52003F061FD009B019AD268B5
:10C090009B1A019A128AB3FBF2F3DBB2184603B083
:10C0A0005DF804FB30FD030000B585B00190019BF5
:10C0B000002B01D10E234CE0019B1B68002B03D108
:10C0C0002649FF2003F042FD019B5B68002B04D151
:10C0D00022494FF4807003F039FD019B9B68002BCF
:10C0E00004D11E4940F2011003F030FD019BDB68D2
:10C0F000002B04D119494FF4817003F027FD019BF7
:10C100001B8A002B04D1154940F2031003F01EFDD9
:10C11000019B9A68019B5B68D31A8DF80F30019BD5
:10C120001B68019A52681A6007E0019B1A6813683D
:10C13000591C11609DF80F201A709DF80F305A1E7F
:10C140008DF80F20002BF0D1019B1B6800221A7183
:10C150000023184605B05DF804FB00BF30FD030066
:10C1600000B585B00190019B002B04D11F494FF40D
:10C17000927003F0EBFC0023039300238DF80A3048
:10C180000DF10A031846FDF7B9F8019B1B681A6800
:10C19000019B5B689A421FD9019B1B681A68013A90
:10C1A0001A601B681B7819460198FFF747FF039038
:10C1B000019B9A68019B1B681B68D31A8DF80B3092
:10C1C000019B1B681B799DF80B209A4204D9019BA7
:10C1D0001B689DF80B201A719DF80A301846FDF770
:10C1E000A3F8039B184605B05DF804FB30FD03007F
:10C1F00010B584B001900091019B002B04D115492A
:10C2000040F2471003F0A2FC009B002B04D111491F
:10C210004FF4A47003F09AFC009B039300238DF865
:10C220000B300DF10B031846FDF768F8019B1B68F6
:10C230001C68621C1A6003990198FFF71BFF0346F4
:10C2400023709DF80B301846FDF76EF800BF04B060
:10C2500010BD00BF30FD030000B583B00190019B0D
:10C26000002B03D10C49312003F070FC019B9B682B
:10C27000002B0CD0019B5B69019A1069019A11682F
:10C28000019A92689847019B00229A6000E000BFE3
:10C2900003B05DF804FB00BF7CFD03000EB400B5E5
:10C2A00084B00190019B002B03D11849422003F078
:10C2B0004DFC019B5B69002B03D11449432003F023
:10C2C00045FC019B1B68002B03D11049442003F05F
:10C2D0003DFC019B5B68002B03D10C49452003F01A
:10C2E00035FC059B002B0AD00023039306AB039378
:10C2F00003AB1A460599019800F0B8F900E000BFB9
:10C3000004B05DF804EB03B0704700BF7CFD030090
:10C3100000B583B001900B468DF803309DF80330D3
:10C320000A2B03D10D210198FFF7F2FF019B1A6838
:10C33000019B9B68581C0199886013449DF8032059
:10C340001A70019B9A68019B5B689A4202D301981C
:10C35000FFF782FF00BF03B05DF804FB00B587B0B4
:10C36000039002910192009300230593009B03F038
:10C370000103002B24D00BE0029B01330293059BA9
:10C38000013305939DF8133019460398FFF7C0FF5A
:10C39000029B1B788DF813309DF81330002BEBD1E6
:10C3A00006E0019B013B019320210398FFF7B0FFBA
:10C3B000019A059B9A422ED9019B002BF1D12AE0CC
:10C3C000029B002B0BD0029813F060F9059006E059
:10C3D000019B013B019320210398FFF799FF019AEC
:10C3E000059B9A420FD9019B002BF1D10BE0029BD8
:10C3F00001330293059B013305939DF813301946D1
:10C400000398FFF785FF029B1B788DF813309DF88A
:10C410001330002BEBD100BF07B05DF804FB000028
:10C4200000B589B00390029101920093029B07939B
:10C430000123069307E0079A019BB2FBF3F30793EE
:10C44000069B01330693079A019B9A42F3D2009A06
:10C45000069B9A4201D9009B06930B9B03F00103B4
:10C46000002B22D10A9B002B1FD00B9B03F0020351
:10C47000002B06D0009B002B03D130238DF8173002
:10C4800002E020238DF8173008E00A9B013B0A9355
:10C490009DF8173019460398FFF73AFF0A9B002BC7
:10C4A00003D0069A0A9B9A42EFD301230793009B7D
:10C4B000012B03D9009B013B009309E0029A079BE3
:10C4C000B2FBF3F30493049A019B9A4200D205E075
:10C4D000079B019A02FB03F30793E8E7029A079B85
:10C4E000B2FBF3F30493049B079A02FB03F3029A53
:10C4F000D31A0293154A049B13441B7819460398D8
:10C50000FFF706FF079A019BB2FBF3F30793079B24
:10C51000002BE3D10B9B03F00103002B11D00A9BEE
:10C52000002B0ED006E00A9B013B0A9320210398C2
:10C53000FFF7EEFE0A9B002B03D0069A0A9B9A4255
:10C54000F1D300BF09B05DF804FB00BF0CFE03008F
:10C5500000B589B00590049103920293049B002BCF
:10C56000B8BF5B4206930123079307E0039B069A3B
:10C5700092FBF3F30693079B01330793039B069A01
:10C580009A42F3DA029A079B9A4201D9029B0793D7
:10C590000A9B002B0AD0049B002B04DB0B9B03F0AF
:10C5A0000403002B02D00A9B013B0A930B9B03F070
:10C5B0000203002B02D0029B002B16D00B9B03F032
:10C5C0000103002B11D10A9B002B0ED006E00A9B21
:10C5D000013B0A9320210598FFF79AFE0A9B002B46
:10C5E00003D0079A0A9B9A42F1D3049B002B07DAE7
:10C5F000049B5B4204932D210598FFF789FE08E018
:10C600000B9B03F00403002B03D02B210598FFF7AD
:10C610007FFE0B9B03F00203002B19D00B9B03F052
:10C620000103002B14D1029B002B11D10A9B002B7C
:10C630000ED006E00A9B013B0A9330210598FFF7D4
:10C6400067FE0A9B002B03D0079A0A9B9A42F1D3FC
:10C6500004990B9B01930A9B0093029B039A0598F4
:10C66000FFF7DEFE00BF09B05DF804FB00B58FB038
:10C67000059004910392059B002B04D1AD4940F233
:10C68000522003F063FA059B5B69002B04D1A94992
:10C690004FF4157003F05AFA059B1B68002B04D168
:10C6A000A44940F2552003F051FA059B5B68002B2A
:10C6B00004D1A04940F2562003F048FA049B002B15
:10C6C00000F09381049B1B788DF83730049B013375
:10C6D00004939DF83730002B00F07E819DF83730B1
:10C6E000252B40F06D8100230A9301230C93049BBA
:10C6F0001B788DF837309DF83730302B0DD0302B2C
:10C700001BDC2B2B11D02D2B17D10A9B43F00103DF
:10C710000A93049B0133049312E00A9B43F0020343
:10C720000A93049B013304930AE00A9B43F0040339
:10C730000A93049B0133049302E000230C9300BF8F
:10C740000C9B002BD3D1002309939DF837302A2B63
:10C750000CD1039B1B68191D039A11601B68099A71
:10C7600013440993049B013304931AE0049B1B7840
:10C770008DF837309DF837302F2B12D99DF8373090
:10C78000392B0ED8049B01330493099A13469B005E
:10C7900013445B001A469DF837301344303B09932D
:10C7A000D3E700230B93049B1B788DF837309DF85B
:10C7B00037302E2B1DD1049B01330493049B1B782F
:10C7C0008DF837309DF837302F2B12D99DF8373040
:10C7D000392B0ED8049B013304930B9A13469B000C
:10C7E00013445B001A469DF837301344303B0B93DB
:10C7F000E4E7049B1B788DF837309DF837306C2BBD
:10C8000003D09DF83730682B07D1049B0133049384
:10C81000049B1B788DF83730EFE79DF83730252BD8
:10C8200000F0C480252BC0F2C680782B00F3C380B3
:10C83000582BC0F2C080583B202B00F2BC8001A2D4
:10C8400052F823F039C90200B7C90200B7C9020083
:10C85000B7C90200B7C90200B7C90200B7C90200D0
:10C86000B7C90200B7C90200B7C90200B7C90200C0
:10C87000C9C80200EBC80200B7C90200B7C902006C
:10C88000B7C90200B7C90200EBC80200B7C902006D
:10C89000B7C90200B7C90200B7C90200B7C9020090
:10C8A000B7C9020079C90200B7C90200B7C90200BE
:10C8B0005DC90200B7C902000FC90200B7C9020072
:10C8C000B7C9020039C90200039B1B68191D039AEE
:10C8D00011601B680C930C9B8DF81F309DF81F3066
:10C8E00019460598FFF714FD66E0039B1B68191DA8
:10C8F000039A11601B680C930A9B0193099B009398
:10C900000B9B0A220C990598FFF722FE54E0039B2B
:10C910001B68191D039A11601B680C930C990A9BE4
:10C920000193099B00930B9B0A220598FFF778FD62
:10C9300042E000BFC0FD0300039B1B68191D039A62
:10C9400011601B680C930C990A9B0193099B00933F
:10C950000B9B10220598FFF763FD2DE0039B1B68DE
:10C96000191D039A11601B6808930A9B099A08997C
:10C970000598FFF7F3FC1FE0039B1B68191D039A42
:10C9800011601B680C9330210598FFF7C1FC7821DA
:10C990000598FFF7BDFC0C99002301930823009331
:10C9A000082310220598FFF73BFD05E02521059897
:10C9B000FFF7AEFC00E000BF049B0133049305E0E9
:10C9C0009DF8373019460598FFF7A2FC049B1B78A9
:10C9D000002B7FF477AE00E000BF059B1B7B002B94
:10C9E00004D00598FFF738FC00E000BF0FB05DF8F9
:10C9F00004FB00BF00B587B0059004910392059B2E
:10CA0000002B10D1194A1A4BD31ADB081B0443F030
:10CA10000100184A18490E2300930B461749FBF7EB
:10CA200076F90E231DE0049B002B10D10F4A104B0A
:10CA3000D31ADB081B0443F00100114A0E490E23F0
:10CA400000930B460D49FBF762F90E2309E0059BA5
:10CA5000049A1A60059B1B681B6803990598984700
:10CA60000346184607B05DF804FB00BFE0F703007B
:10CA700088F703002CFE0300D0FF030034FE030000
:10CA800060FE030010B586B00590049103920293F6
:10CA9000059B002B10D1604A604BD31ADB081B04A6
:10CAA00043F001005E4A5F490E2300930B465E4946
:10CAB000FBF72DF90E23ABE0039B002B10D1564A58
:10CAC000564BD31ADB081B0443F00100574A554963
:10CAD0000E2300930B465449FBF719F90E2397E0F8
