:020000022000DC
:1070000000000420757302005D7302005F730200CC
:1070100061730200637302006573020000000000E8
:107020000000000000000000000000006773020084
:1070300069730200000000006B7302006D730200B0
:1070400061A802006F7302008DAA02006F73020034
:107050006F7302006F73020011A902006F730200C8
:107060006F7302006F7302006F7302006F73020090
:107070006F7302006F7302006F7302006F73020080
:107080006F730200D58402006F7302006F730200F9
:107090006F7302006F730200791803006F730200B0
:1070A0006F7302006F7302006F7302006F73020050
:1070B0006F7302006F730200000000000000000008
:1070C0006F7302006F7302006F7302006F73020030
:1070D0006F7302006F7302006F7302006F73020020
:1070E0006F7302006F7302006F73020000000000F4
:1070F000000000006F730200000000006F730200C8
:10710000000000000000000000000000000000007F
:10711000000000000000000000000000000000006F
:10712000000000000000000000000000000000005F
:10713000000000000000000000000000000000004F
:10714000000000000000000000000000000000003F
:10715000000000000000000000000000000000002F
:10716000000000000000000000000000000000001F
:10717000000000000000000000000000000000000F
:1071800000000000000000000000000000000000FF
:1071900000000000000000000000000000000000EF
:1071A00000000000000000000000000000000000DF
:1071B00000000000000000000000000000000000CF
:1071C00000000000000000000000000000000000BF
:1071D00000000000000000000000000000000000AF
:1071E000000000000000000000000000000000009F
:1071F000000000000000000000000000000000008F
:10720000354936480A1A02D0072291438D4634493F
:1072100034480A1A06D00722914381F309880222D2
:1072200082F3148830483149314A00F044F831483B
:107230003149324A00F03FF831483249324A00F0D1
:107240003AF832483249334A00F035F83248334987
:10725000334A00F030F833483349344A00F02BF811
:1072600033483449344A00F026F83448344900227F
:1072700000F02CF833483449002200F027F8334856
:107280003349091A082902DB002202604160314AB1
:1072900090471F481F49884205D00268043003B454
:1072A000904703BCF7E700208646EC46002000210B
:1072B000294A9047FEE7884207D0521A05D0037842
:1072C00001300B700131013AF9D17047884202D088
:1072D00002700130FAE770470000042000E003204C
:1072E00000000420000004209856030074220020AF
:1072F000C4240020D0730200D0730200B82D030014
:10730000985603007422002074220020482F0300A6
:10731000482F0300482F0300482F0300482F030085
:10732000482F0300482F0300482F03009656030000
:10733000E8580300C4240020C4240020C4240020F2
:107340002C3C00202C3C00202C3C00202C3C00201D
:107350002C5C00209D73020081AE0200FEE7FEE778
:10736000FEE7FEE7FEE7FEE7FEE7FEE7FEE7FEE7F5
:1073700000F002B8FFF7FCBF0F484FF00701884349
:1073800085460E4880470E48016841F4700101604F
:10739000BFF34F8FBFF36F8FFFF732BF09480A4922
:1073A0000A4A884207D0521A05D0037801300B7080
:1073B0000131013AF9D1704700000420F9A302001D
:1073C00088ED00E0342F03006022002074220020AA
:1073D0007047000007B5044B0093044A402300F0B7
:1073E00032F803B05DF804FBF1730200C5240020FD
:1073F0002DE9F84388461446B2B10F4B0F4E0325D2
:10740000002743F00109224608EB0701002004F0A1
:10741000E7FB0744241A48B933782BB14FF47A407C
:10742000C847013D02D13570BDE8F88301233370B0
:10743000002CE8D1F8E700BF502F0300C42400203F
:10744000704704F0FDBBF0B595B01D4616460846E2
:107450000C4602F08DFE1A9B0D93CDE908650025C0
:107460002B46082205A920460A958DF82C500C952C
:1074700002F09AFE079B0293069B03939DF814303B
:107480008DF8115003F00302012A1DD1BDF814201C
:10749000059DC3F3C203C2F383168DF81030B2000A
:1074A00008230EA9204602F07FFEC5F3952508AB00
:1074B0000093324602AB0EA9284600F049FB204655
:1074C00002F05AFE15B0F0BD022AF8D1BDF81650F0
:1074D000C3F3C203C5F389158DF810300827082DB2
:1074E0002E4628BF08263B4632460EA9204602F00B
:1074F0005BFEAD1B08AB02AA31460EA8374400F074
:107500008BFB002DEBD1DAE708B5FFF79AFF0448B3
:10751000042100F087FA034B01225A7108BD00BF15
:10752000242F030074220020037813F0040216D0E5
:1075300003F00303012B03D0022B09D00120704775
:107540000A6800880232C0F3831002440A60F5E73B
:107550000B684288023303EB92130B60EEE7104690
:10756000704700002DE9F04FDFF81CA187B00F46EF
:1075700000230446861C0DF1070015468DF80730E0
:1075800000F03AFEDAF804203A60DAF8083003F541
:1075900080739B1A0AF21C470AF583690AF21448A1
:1075A000B3421AD30020002D69D004F00F039B01D1
:1075B00043F0050363F30F00DAF80430DAB2033264
:1075C00033444AF822009DF80700CAF8043000F05E
:1075D00037FE012007B0BDE8F08F0121384602F0E8
:1075E00033F8484602F04BF8404602F048F8DAF823
:1075F00008000290C0B203300AEB800002A9FFF736
:1076000093FF029B30BBDAB20AEB8202D16803918E
:107610009A1C0133DBB20AEB83030292D3F80CB05D
:1076200001F00303012B22D0022B15D083464046E4
:1076300002F028F810B1029BCAF8083059463846C3
:1076400002F002F8DAF80830DAF8042003F5807363
:107650009B1AA5E7D8B2CEE7BDF80E30C3F3891365
:1076600003334FEA1B4B02EB93030293DFE7BDF8B2
:107670000C30C3F383134FEA1B4B1344F5E7A40507
:1076800044F0060098E700BFD8250020064B0748C5
:1076900010B500221A7002F024FD044610B9044807
:1076A00002F0FAFD204610BDD8250020402E030030
:1076B0008C2F030030B50A4C71B10A4A0A49121BDB
:1076C000D20800239A4201D1002030BD31F8235066
:1076D000854202D00133F5E7034654F83300F4E75E
:1076E000542E0300242F030074220020094B01397B
:1076F00003EBC000032909D8DFE801F00A02040601
:107700000420704700797047407970470020704727
:1077100002207047542E0300034BD3E90130C31AF3
:1077200058425841704700BFD82500202DE9F0414C
:1077300086B0FFF7F1FF0546002840F0ED80774C5A
:10774000C4F81804BFF34F8FA3680293DBB203336E
:1077500004EB830002A9FFF7E7FE029B18B1D4F8FF
:107760001824002A5AD0DAB2991C013304EB8202A1
:10777000DBB204EB8303D268DB68049302F00303FB
:10778000022B0392029154D1BDF80E306448C3F32A
:107790008917502F3E4628BF502606F1080166F390
:1077A0008F13C1F30901ADF80E3002F0B2FC0546AB
:1077B000002800F09C8002F0DBFC0023082203A9D3
:1077C000284602F0E7FC0299CB43DBB20133C9B291
:1077D0000331B6EB830F4FEA830204EB810125D915
:1077E0005FFA82F80823A6EB0806284602F0D2FCCE
:1077F000F6B208F108034B4903F0FC033246284671
:1078000002F0C8FC029B033703EB97070297D4F8FA
:107810001834002B43D1D4F8106453E062689A42C4
:1078200094D8A260284606B0BDE8F081082332460D
:10783000E5E7012B5BD1BDF80C303948C3F3831168
:10784000062928BF062161F38913023101F00F01D7
:107850008900ADF80C3002F05CFC0546002846D0EB
:1078600002F086FC0023082203A9284602F092FCBD
:107870000026BDF80C20C2F38312B300964203F138
:107880000803C4D202994A1CC9B20331029204EB24
:1078900081010422284602F07DFC0136E9E72846F2
:1078A00002F06AFCFFF738FF80F00100C5B2B9E7CB
:1078B000F3685B7923B1336829461B6830469847E3
:1078C000F3681E68002EF3D1284602F055FC0DF136
:1078D00007008DF8076000F08FFCD4F818340BB95E
:1078E000029BA3609DF8070000F0AAFCDAE7D4F839
:1078F000104454B90C4B0D480D49C01AC00800047F
:1079000040F0020000F05CF8CCE7236820469B685A
:107910009847E3681C68ECE7002583E7D82500203A
:10792000402E0300E4250020542E03007C2E03008B
:10793000742F03002DE9F34704460E46924601A931
:10794000012218469946FFF70DFE1B4F10B3019D0B
:107950004FF00008AA1CC84508EB020123D11748C4
:10796000002101F02AFE80F31000000440EA1440D8
:10797000E4006B1C04F03804DBB2EDB244F0010407
:1079800007EB8303033544EA881444EA8624D8606D
:1079900047F825403B781BB1FFF7C8FE0028FBD114
:1079A00002B0BDE8F087C9B207EB81015AF8283070
:1079B000CB6008F10108CEE7D8250020F42900208B
:1079C00000231A46FFF7B6BF07B50123019201AAAB
:1079D000FFF7B0FF03B05DF804FB07B5CDE9002366
:1079E00002236A46FFF7A6FF03B05DF804FB1FB54C
:1079F000CDE90123069B039301AA0323FFF79AFF16
:107A000005B05DF804FB1FB5CDE90023069B02938A
:107A1000079B03936A460423FFF78CFF05B05DF8CC
:107A200004FB000030B50F4CD4F8102403460020AE
:107A3000114631B9D96808714AB9C4F810340A60DE
:107A400030BDC9680D79854206D00968F1E7D26872
:107A500014680C601360F3E701300A28E8D14FF096
:107A6000FF30EDE7D825002038B5084B0125D3F8C5
:107A700010441D7004B938BDE3685D712368204669
:107A80005B689847E3681C68F4E700BFD8250020CE
:107A900030B5C38885B004460D4633B1144A009210
:107AA0001449154A284601F050FE217A05291DD0B7
:107AB000637A4BB1A088FFF719FE104B104953F8B9
:107AC0002020284601F041FE227A0E4BA08853F870
:107AD000222003920021FFF7EDFD039A0A49034695
:107AE000284605B0BDE8304001F02FBE05B030BDDE
:107AF000B82F0300A02F0300982F030024300300A9
:107B00008F49030048300300BD2F030007B503462B
:107B10000846197A052911D05B7A2BB1094A0A491E
:107B2000019001F012FE01980849019001F00DFE4C
:107B3000019803B05DF804EB01F0FCBD002AF8D019
:107B4000F2E700BFB82F03008F490300B52F0300F1
:107B50002DE9F04385B01F460C9D002395F80C904D
:107B60002B7306460C46904629463846FFF790FF91
:107B7000B8F1060F09D8DFE808F00412181F2833FF
:107B800040003146284601F0E0FD002229463846F3
:107B9000FFF7BCFF85F80C9005B0BDE8F0832268C4
:107BA0003146284601F0D1FDEFE7D4E90023314604
:107BB000284601F0CAFDE8E7A36800933146D4E9FE
:107BC0000023284601F0C1FDDFE7E3680193A368C5
:107BD00000933146D4E90023284601F0B6FDD4E7EE
:107BE00023690293E3680193A36800933146D4E9C3
:107BF0000023284601F0A9FDC7E7636903932369C1
:107C00000293E3680193A36800933146D4E900230B
:107C1000284601F09AFDB8E708292DE9F74F80467C
:107C20000E4617461C463DD800251B7B2573214672
:107C300010460193FFF72CFFDFF88CA0DFF88CB023
:107C4000AE4232D918F805205946204601F07DFD94
:107C50000135082DF4D11B49DFF874A0DFF874B0AA
:107C6000204601F072FD4FF000094E4524D918F866
:107C700009507E2D1ED828460AF0B4FF002814BFF4
:107C80002A462E225946204601F05FFD09F10109DE
:107C9000B9F1080FE9D1012221463846FFF736FF36
:107CA000019B237303B0BDE8F08F5146204601F0DD
:107CB0004CFDCDE72E22E5E75146204601F045FD7B
:107CC000E4E700BFD12F0300CD2F0300C72F03002F
:107CD000CF2F0300D32F03001FB50021039001AA6B
:107CE00044F20100CDE9011100F004F805B05DF89F
:107CF00004FB000008B572B6FFF7B6FEFFF716FDED
:107D00000028FBD1054B06480649C01AC0080004EC
:107D1000BDE8084040F00100FFF752BE542E0300BA
:107D20007C2E0300673003004B1C30B5DB0004469B
:107D300012F003009BB20DD1074D2A601A44074B85
:107D40001A60074B1870074B1870074B1C80074BC5
:107D5000198030BD0720FCE7982A0020942A0020D3
:107D6000902A0020A02A00209C2A00209E2A002081
:107D70002DE9F743DFF8BC80B8F800308B420646A7
:107D80000D46174647D300240DF107008DF8074034
:107D900000F032FA224B234A23481B78008892F8DD
:107DA00000C084455FFA8CF138BF4C1CDBB238BF91
:107DB000E4B2A34228D014781178CBB2884286BFAF
:107DC0000133DBB2002313709DF8070000F038FA8E
:107DD0004FF6FF739C4220D0144B1B6843F834705D
:107DE00003EBC4099EB195B1114BB8F800001B68B4
:107DF0002A46314604FB00300AF030FFA9F804504F
:107E0000002003B0BDE8F0834FF6FF74DCE70020EC
:107E1000A9F80400F5E70920F3E70420F1E700BF23
:107E2000A02A0020902A00209E2A0020982A0020C4
:107E3000942A00209C2A002070B5104C104D227806
:107E40002B789A4200D170BD0E480F4A23781268F1
:107E500006880E4802EBC301006852F83320898877
:107E600003FB060090470A4922780988D3B2914261
:107E700086BF0133DBB200232370E0E7A02A002095
:107E8000902A00209C2A0020982A0020942A002072
:107E90009E2A002010B5D0E90243D1E90202A04297
:107EA00072EB03032CBF0120002010BDD0E900308D
:107EB0001847000008B50A4800F0F5FA094AD2E967
:107EC0000031C018084BD3E9002341F10001904272
:107ED00071EB030303D210F1807041F1000108BD82
:107EE0007C220020A82A0020202B002037B5054640
:107EF0000C460A4801A901F094FA60B1057044608B
:107F000001A9064801F0B7FA18B1054800F0D0FA07
:107F1000002003B030BD0420FBE700BF0C2B002085
:107F20007C2200201C4B37B51D78044675B380B306
:107F3000037F03F0FF054BB3FFF7BCFFD4E9022337
:107F4000904271EB03031BD3236903B92377636961
:107F50000093124AA369019308216846FFF708FFBE
:107F600008B1FFF7B9FE22697AB1237F03F0FF055C
:107F700063B1D4E902319B1841F10001C4E9023137
:107F80000748214602F0A7F900E01546284603B04D
:107F900030BD0546FAE700BFB02A0020AD7E0200E2
:107FA0008430030013B5114B114918680190082360
:107FB0001048582201F000FA044698B90E4A0F48BA
:107FC00001A900F061F9044660B90C48012100F0F4
:107FD0004DFA01230A4A0948194600F0AFF9094B46
:107FE00001221A70204602B010BD00BF7E3003008F
:107FF000B42A00200C2B0020698002007C22002083
:10800000FFFF7F00B02A00203AB103685A614A1E80
:10801000514251411961002070470720704738B51F
:10802000037F04460D4683B98261FFF743FF23694E
:10803000281841F10001C4E9020103B1256121467C
:108040000020BDE83840FFF751BF002038BD0023B5
:10805000014603770120FFF749BF0000014800F007
:1080600022BA00BF7C2200202DE9F347064600F02B
:1080700005FA40B1584AD2E9003113F1807341F159
:108080000001C2E900310021304600F006FA38B1A3
:10809000524C236823B12068FFF744FF002323607C
:1080A0000121304600F0F9F920B1FFF703FF4C4BF6
:1080B000C3E900014B48494D4B4C4C4F01A901F01D
:1080C000EAF9002842D1DFF82081444CDFF82491FE
:1080D000404602F016F92368002872D07BB123686D
:1080E000D0E90252D3E902138D4272EB03032AD284
:1080F00023681B7F1BB12168404602F0ECF8404624
:1081000002F0F9F8D0E9027A0546FFF7D3FE381AF3
:108110006AEB010A01287AF1000345DBB0F5350F5F
:1081200040D3FFF79BFF324A02444FF496030021ED
:10813000484600F023F900283ED1236813B93046A1
:1081400000F0F4F8256002B0BDE8F0870378012B59
:108150001DD0022B09D14FF00008204602F0CBF8C9
:10816000002836D080F81C80F7E73BB941680B7FC8
:1081700023B901230B77204602F0ADF801A9194875
:1081800001F0B4F901A9174801F085F999E74168B0
:108190002B68994202D100232B60EFE7204602F0C2
:1081A000B3F8EBE7AA68C0E70021484600F06BF996
:1081B0002846FFF7B7FE01E00D28F9D00023236021
:1081C00086E7002BBFD1304602B0BDE8F04700F093
:1081D000B1B801233B70D1E7A82A0020282B00204A
:1081E000202B00200C2B002084300300B02A00201C
:1081F000FFFFB4007C22002070B5EFF3108672B64A
:108200000C4A946801239CB993600B4B0B4DD3F837
:10821000801029401160C3F88050D3F88410516059
:108220004FF0FF32C3F88420047006B962B670BD07
:108230000370FAE72C2B002000E100E0FC06FFBDF4
:10824000084B9A6810B55AB150B9EFF3108172B665
:10825000054A1C6814605C685460986001B962B695
:1082600010BD00BF2C2B002000E100E0435882B07D
:108270003BB10023435043580193019B012002B0BE
:1082800070471846FBE70000F8B5204B4479204EB4
:1082900043F824201F4A204B06EBC4049B1A227982
:1082A000DB081B0432B143F002001C49FFF788FBD6
:1082B0000820F8BD02680C88C2F8084590F90450FF
:1082C0008A7804795201002DD2B219DB14494F1972
:1082D00087F8002301226D0904F01F0402FA04F458
:1082E00041F82540427906EBC201012446F83200EC
:1082F0000C7143F003000B49FFF762FB0020D8E745
:10830000094904F00F040A55ECE700BF402B002098
:10831000382B0020542E03008C2E030090300300D5
:1083200000E100E0B230030014ED00E00368012238
:108330001A607047036801225A60704773B501F1F3
:108340005005AD000068ADB24FF480348C4000267B
:10835000C0F80843C0F84843465101F5A871455993
:10836000019522F07F42019D40F82120C0F844434E
:108370000BB1C0F8044302B070BD00002DE9F74F07
:108380000D4622F07F4402684FF4803705F1500615
:108390008F408046B60002EB8500C2F84873B6B243
:1083A000C2F80873D2F8041599464FF0000BD0F8C4
:1083B0004035C0F8401542F806B05B1A9259009259
:1083C00023F07F43012B009A4FEA850A0CD1264BFC
:1083D0004FF4806043F001039847D8F8003043F829
:1083E00006B09B590193019BD8F80010D1F80465A1
:1083F000C1F84473A31B23F07F43012B1CD11A4BFC
:1084000005F5A875013443F0010341F825404FF408
:1084100080609847D8F80030D3F804359E4209D1DF
:10842000D8F800300020C3F84473C3F8047303B0D5
:10843000BDE8F08F0D20FAE78A44C9F1FF13CAF8AE
:108440004045D1F80405221A013A22F07F4203F593
:108450007F439342EED3002AE2D10134CAF840456B
:10846000D1F804359842DAE7D030030003680222DD
:10847000C3F8442309B1C3F80423704700684FF4DC
:108480008271FFF7F3BE4FF4803303FA01F1036802
:10849000C3F84813C3F808137047503189000068C7
:1084A00089B2FFF7E3BE0368D3F804057047000004
:1084B00090F90430002B09DB5A09012103F01F0356
:1084C00001FA03F34032024941F82230704700BFFD
:1084D00000E100E0024B034A1B681068184700BF28
:1084E000402B0020382B002070B5064D0646002496
:1084F00055F8043B0BB1304698470134042CF7D1B2
:1085000070BD00BF502B00204388033300EB830372
:1085100099420BD382884FF6FF739A4208D00388A2
:1085200033B18068431C584258417047022070475D
:1085300001207047033080B240F2FE33984230B5DC
:108540001FD8134B1A783AB91C895D892C4404440E
:10855000A4B2B4F5806F0AD91A7DAAB99A8BDC8BC4
:108560002244024492B2B2F5806F0DD801220A80F3
:108570001446142202FB04335A8910445881002007
:1085800030BD48F20860FBE748F20660F8E700BF3C
:10859000842B00200B4A0C495388142000FB031144
:1085A000CB6833B90420496810700122074801F0F4
:1085B00061BB07490523137002238B8001220968E0
:1085C0000023F3E7682B0020842B0020602200208A
:1085D0004C2C002007B5002305490093054A096883
:1085E0000548082301F0ACFA03B05DF804FB00BFB6
:1085F0004C2C0020E43003006022002007B500234B
:1086000001460093034A0448082301F099FA03B095
:108610005DF804FBDC3003006022002013B500236A
:108620000C4600930146084A0848042301F088FAE2
:1086300038B9074B142101FB043101230B7402B03C
:1086400010BD48F20D60FAE7D83003006022002028
:10865000842B002037B50A480A4B42689C88196869
:1086600053880325033305709BB2002000909B00C4
:1086700001EB8401044801F063FA03B030BD00BF90
:10868000682B00204C2C00206022002010B50146F1
:10869000044800F0C6FE1C22044600210AF007FB35
:1086A000204610BD382C002068B10268084B9A4261
:1086B00009D14068074B984207D00133984214BF54
:1086C000032001207047032070470020704700BF3F
:1086D000DEC0ADDEFE011EF12DE9F0410D460223A4
:1086E000154F2B80164600F5805100F108044FF01D
:1086F00001088C420ED2236801330BD02046FFF7CD
:1087000003FF48B10EB186F80080022809D14FF46A
:1087100080632B80BDE8F081A3683A68934200D95A
:108720003B602B886288033313442B8063880333B8
:1087300004EB8304DDE700BF7C2B002038B5144B2D
:1087400014220D4602FB00302B68446804F580516A
:10875000A3B15C88033403EB84048C4215D22368F4
:10876000013312D02046FFF7CFFE012808D002289F
:108770000BD00028F1D12C60012038BD0834ECE783
:108780006388033304EB8304E7E70020F5E700BFC9
:10879000842B0020426873B504460D466AB3234B10
:1087A000D9688A4229D31B699A4226D812F003035A
:1087B00023D11F490089098988421ED12068916808
:1087C00088421AD11B4841688A4203D901F5805179
:1087D0008A420DD381698A420CD901F580518A42BF
:1087E00008D201222A80B3FA83F0400902B070BD9A
:1087F0001A46F7E748F20963F5E700262E8001964E
:10880000288801A9FFF79AFF30B92B8801339BB262
:10881000012B2B80F3D9E9E7019B226899689142EB
:10882000EED16360024B1B892381DFE760220020C9
:10883000682B0020842B00202DE9F8431C461D4B9B
:108840001B7806460F46154673B382B37CB3DFF838
:108850006C804FF01409A388012B02D948F20960FB
:1088600020E009FB03F318F803302BB9A088214658
:10887000FFF764FF20B92060A3880133A380EAE7F3
:1088800023681EB1998832889142EFD11FB11988AF
:108890003A889142EAD19A68C5E90023064B1B89C0
:1088A0002B810020BDE8F88348F20160FAE748F226
:1088B0000460F7E7602B0020682B0020842B002049
:1088C00008B5074B5888191DFFF738FF18B1BDE8E8
:1088D0000840FFF7BFBEBDE80840FFF75BBE00BF22
:1088E000682B00202DE9F047A24FDFF8AC8288B05A
:1088F00006463B6823B9A048414600F0CCFD3860ED
:108900003D6829784B1E052B07D8DFE813F02000BF
:108910007A007A000C010C01630148F20E64142203
:10892000002103A80AF0C3F941F61D539C4208BF79
:1089300000243B6804941A78023A042A00F2028266
:10894000DFE812F0E301EF011102190220022EB15B
:108950008A4B00225A604FF40644E0E72B79032B40
:108960001CD8DFE803F014022A35854A1378022B5D
:108970001AD0137D022B4FF0010317D114214B4362
:10898000D1180020D0544868FFF738FE03E00123D7
:108990002B71FFF71FFE002800F0BF80774B0022ED
:1089A0005A6048F20D64BAE70023E7E7734A137090
:1089B0000023536041F61D54B1E772497248002309
:1089C00002222B718A800968012201F053F9E2E743
:1089D0006C4C00262E712068FFF710FE6B4BDFF801
:1089E000A0C15B882568142253430CEB03020CF8EA
:1089F000036051685560A588158102222160A2801C
:108A0000C9E7B5F814A0AA7DDFF87491AEB1022AC7
:108A1000EB8806D9142101FB0A91DA1C088902446B
:108A20000A81142202FB0A99C3F57F43B9F80A2090
:108A3000FD331344A9F80A308DE7142303FB0A938E
:108A400018895C6804EB8004062A69D8DFE802F024
:108A5000274E36441D5A040041F61D54AA7DEB886A
:108A6000022A06D9142101FB0A91DA1C0889024462
:108A70000A81142202FB0A99C3F57F43B9F80A2040
:108A8000FD331344A9F80A3049E74148414900231E
:108A90004360AB690360FFF77DFE00285BD00223D3
:108AA000AB75002300930423EA182146364801F0F1
:108AB00047F8002831D048F20D64CFE72B69002B2E
:108AC00014BF03230123AB750023009305F10C02AF
:108AD000042304F10801E9E70123AB750022EB88C8
:108AE00000922A699B0004F10C01DFE703290CBF07
:108AF00005230623AB7500230093042305F1080228
:108B0000E118D3E70623AB75224B1988204B586830
:108B1000FFF784FD04460028A0D108B0BDE8F08727
:108B200048F20E649AE7002E7FF415AF2B79012BE3
:108B300034D0022B3FF43EAF002B7FF4EEAE022385
:108B40002B710DF10A01EB68039303A8CDE90466CC
:108B5000FFF720FE10B948F20964E0E60498BDF87A
:108B60000A108388EB8003882B81FFF757FD0446AA
:108B700029E000BF802B0020382C0020602B002033
:108B8000842B00204C2C002060220020682B002029
:108B9000442B0020582C0020782B0020DFF8009276
:108BA00003AA4B463146A81DFFF746FE044670B99E
:108BB000B9F804100498FFF731FD044648F2096340
:108BC0009C423FF4F7AE002C7FF4A9AEA5E7C9E9BB
:108BD0000066F3E7002E7FF4BEAE6C4B1A7BBAB191
:108BE0001E731A78013A062A3FF697AE01A151F892
:108BF00022F000BF9F8C0200C58C0200E38C0200B3
:108C0000E98C02001B890200EF8C0200018D02003A
:108C10001A78072AE5D801A151F822F03D8C02000C
:108C2000E38B0200E38B0200638C0200778C02006E
:108C30009B8C02009B8C02005F8C02001A895449B5
:108C400001321A8100225A801A730A78B2FA82F22B
:108C500052099A720A7DB2FA82F25209DA7201223C
:108C600007E04C4958688A884088033202448A8069
:108C700002221A70B5E75C88454A4649142505FB6F
:108C800004220868546850608888108102200C60B3
:108C90008880002111740622EBE70722E9E79A7A1F
:108CA00032B9DA7A8AB900221A705A805A6081E69B
:108CB000374900229A72CA68002AF2D1097C002939
:108CC000EFD05A80FFF7FCFD51E70022DA72304AFC
:108CD000116A0029E7D192F82420002AE3D001226A
:108CE000EFE7FFF7B7FC42E7FFF754FC3FE75A888E
:108CF000274B142101FB02335868FFF77FFC36E74E
:108D000000225A60FFF766FC31E701228DF80C2043
:108D10001A89ADF818209A88DB68ADF81A200593F7
:108D200010E002228DF80C201A89ADF818209A88DC
:108D3000ADF81A20DA689B7D05929A1F5342534181
:108D40008DF81C3003A8FFF7CFFB002641461248E0
:108D50003E6000F0CBFB1148012100F081FC0028AF
:108D60007FF4C7ADD9E603228DF80C20DA88ADF880
:108D700018201A89D0E704228DF80C20DB88ADF882
:108D80001830DFE705238DF80C30DBE7682B002077
:108D9000842B00204C2C0020382C0020482C002054
:108DA0005C2C00204068FFF79DBD000008B5054819
:108DB000012100F03DFC18B9BDE80840FFF792BD65
:108DC00008BD00BF482C00202DE9F3419846374BE1
:108DD0001B7806460D46002B5CD000295DD0098823
:108DE0004FF6FF7399425BD06B88002B58D06B68AD
:108DF0009B0758D14AB92F890DF102013846FFF778
:108E000099FB30B102B0BDE8F08113885788ADF806
:108E1000023001A8FFF73AFC044660B9BDF8022011
:108E2000234B142101FB023358890338C01B58819E
:108E300048F20760E6E780F8008000238375BDF8FC
:108E4000023083826B68036101211A4800F0FCFB49
:108E50002B882381B8F1030F6B88A38004BF042300
:108E6000A3754FF0000508BF3368E06008BFA36139
:108E70001148E780658101A900F0FDFA36B1E36889
:108E800033600E4B75601B89B5723381FFF78EFF1F
:108E90000020B7E748F20160B4E748F20460B1E7A8
:108EA00048F20360AEE748F20260ABE7602B0020B7
:108EB000842B00207C2B0020382C0020682B0020E5
:108EC00008B5034607480268042A08D00168064A24
:108ED00042F82130012100F0B7FB002008BD48F224
:108EE0000B60FBE7542C0020502B00202DE9F04FA5
:108EF00089B01422002103A809F0D9FE7A4B1B780F
:108F000003F0FF0B3BB103A8FFF7EEFA002738464A
:108F100009B0BDE8F08F744B181D00F0ADFB0028C0
:108F2000F4D1DBF8F83FDFF8E0A15C1C08BF4FF09C
:108F300010234FF0805208BF5B6911695269581CB9
:108F400008BF02FB01F3CAF810306849A3F540538B
:108F500000225046CAF80C3000F0C0FD0746002839
:108F6000D5D11C2362496348DFF8A0918C2200F020
:108F700023FA0323B8463D4601933C46DAF80C60D9
:108F800046443046FFF790FB012862D0032817D0F3
:108F900000283DD158494FF0140C0CFB04FC01EBA8
:108FA0000C0201F80C0056600CF110020CF1080CD8
:108FB0000A4430466144FFF78FFB45F0020545E067
:108FC0003268531C02D04D4B9A4234D1321D06F503
:108FD0008051106801302ED104329142F9D1D9F874
:108FE00000203AB90222C9F80060A9F804204FF025
:108FF000010B0BE0142262433F4B02209918985456
:109000003F4A4E60548001340881A4B245F0010506
:1090100008F58058B8F5405FB0D1019B012B98BF8F
:109020000025EDB2022D03D0062D32D0002D39D10E
:1090300048F20A676BE7019B2F495A1E93B214222C
:109040006243881801934660032088540134A4B217
:10905000DEE7BBF1000F0DD0274B142262439918B5
:1090600002209854D9F800204A60254A088154808B
:109070000134A4B200222349C9F800603046FFF74A
:109080002BFBB9F80420022A0CBF04220822154346
:10909000BEE7154A0123137003A800235360FFF7AE
:1090A00023FA34E702A8FFF7F1FAC8B10123013D22
:1090B00003700A2D09D8DFE805F00608060807083E
:1090C00007080F110F000023037102A9094800F0DF
:1090D000D2F9FFF76BFE1AE70323F5E70223F3E764
:1090E00048F2076713E700BF602B0020D832030067
:1090F000AC2B0020382C0020842B0020DEC0ADDEFD
:10910000682B0020502C0020602200204C2C0020D6
:1091100073B50D460446C8B1C1B10DF10601FFF7A4
:1091200039FBB0B1BDF806300B486668142202FB6B
:10913000030001210C3000F087FA63682E600C33C5
:109140006B600123A372002002B070BD48F204607E
:10915000FAE748F20960F7E7842B002013B50446CC
:10916000A8B10DF10601FFF715FB98B1BDF8062077
:109170000B4B142101FB0233DA6872B1A27A62B19F
:10918000DA680020013ADA60A07202B010BD48F23D
:109190000460FAE748F20960F7E748F20560F4E78F
:1091A000842B002002230022FFF70EBE18B10323F8
:1091B0000022FFF709BE48F204607047114B1B788C
:1091C00013B50446ABB14FF6FF73984214D001A813
:1091D000FFF75CFA98B10523037001230371C48083
:1091E00001A9094800F047F9FFF7E0FD002002B0AF
:1091F00010BD48F20160FAE748F20360F7E748F271
:109200000760F4E7602B0020382C00200F4B1B7800
:1092100007B5A3B101A8FFF739FA98B10623037087
:1092200001A90B4800F027F90A4B1A780AB101226C
:109230001A73FFF7BBFD002003B05DF804FB48F292
:109240000160F9E748F20760F6E700BF602B0020F5
:10925000382C0020682B002007B5ADF80600ADF8CB
:1092600004100DF1060001A9FFF7E6FA03B05DF85E
:1092700004FB07B51346ADF806000A4600200DF1C1
:109280000601FFF7D9FA03B05DF804FB07B51346F2
:10929000ADF806000A460DF106000021FFF7CCFAF2
:1092A00003B05DF804FB20B119B103680B60002026
:1092B000704748F2046070472DE9F84F3C4B1B782B
:1092C0000446002B6DD000286ED0DFF8E890122203
:1092D000002109F0ECFC032323804FF0000A4F46E5
:1092E00014264FF00108D9F80410B9F80AB0B9F8FB
:1092F00008500846FFF7D8F9032808BF238862887A
:1093000004BF03F1FF33238006FB0A735D44DB686F
:109310001344638023899B446389A4F808B0ADB2E9
:109320002B446381C5F58065A389ADB2AB4238BFDC
:10933000A58101F1080501F58051A94229D92B68C1
:10934000013326D02846FFF7DFF801280AD002288B
:1093500015D00028F1D1A3880133A3800AE04FF093
:10936000010AC0E7E3880133E380E3896A880333B5
:109370001344E3816B88033305EB8305DDE7E38862
:1093800084F810804D1BE189013301EBA501E380D6
:10939000E18109F11409BAF1000FE0D00020BDE825
:1093A000F88F48F20160FAE748F20460F7E700BF7F
:1093B000602B0020842B002010B561B1B2FBF3F4C8
:1093C00003FB1424A4B244B9C0E900148460828170
:1093D000C381204610BD0E20FCE70920FAE782B0C9
:1093E00050E8022FC188B2EB324F4FF0000317BF95
:1093F00092B241EA014142EA014104E04268B2EB23
:10940000324F08BF012340E80212002AE8D18DF84C
:1094100007309DF80730002B0CBF1120002002B050
:10942000704737B550E8013F9DB2C489254484890F
:10943000A54228BF2D1B0489A54202BFBFF32F8F71
:10944000002207E0C5EA030540E80154002CE9D1F9
:109450004FF001028DF803200193019A0A609DF8F4
:10946000031001F0FF0321B1006810FA82F003B08D
:1094700030BD1846FBE70A884B889A4209D150E86C
:10948000012FC2EA024240E80123002BF7D101205C
:1094900070470020704737B550E8023F1FFAA3F528
:1094A000C488A54202BFBFF32F8F00220DE0C489FC
:1094B00025448489A54228BF2D1BC3EA054540E801
:1094C0000254002CE8D14FF001028DF803200193E3
:1094D000019A0A609DF8031001F0FF0321B10068B2
:1094E00000EB124003B030BD1846FBE70A884B88FA
:1094F0009A4209D150E8022FC2EA224240E80223F0
:10950000002BF7D1012070470020704701F01F02A7
:109510004B090121914000EB830000F065B84B0935
:1095200010B501F01F040121A14000EB830000F001
:109530004FF8E04000F0010010BD01F01F030122D0
:109540009A404B0900EB8300D14300F065B84B090A
:1095500001F01F0150F82300C84000F001007047DF
:109560002DE9F0474F1E7F0980460E460137002542
:1095700058F8254008EB8509E44394FAA4F4B4FABA
:1095800084F44FEA451A202C06D10135AF42EFD8BA
:1095900034462046BDE8F0875444A642F5D921461A
:1095A0004046FFF7BCFF0028F3D0D9F80040E44361
:1095B00094FAA4F4B4FA84F4E5E710B5034653E84A
:1095C000000F0A4643E8002494F0000FF7D110BDC5
:1095D00010B5034653E8000F40EA010243E80024B7
:1095E00094F0000FF6D110BD10B5034653E8002FDC
:1095F00042EA010043E8000494F0000FF6D110BDE8
:1096000010B5034653E8000F00EA010243E80024C6
:1096100094F0000FF6D110BD10B5034653E8002FAB
:1096200002EA010043E8000494F0000FF6D110BDF7
:1096300010B5034653E8000F00EB010243E8002495
:1096400094F0000FF6D110BD10B5034653E8002F7B
:1096500002EB010043E8000494F0000FF6D110BDC6
:1096600010B5034653E8002FA2EB010043E80004C5
:1096700094F0000FF6D110BD0121FFF7A9BF012121
:10968000FFF7B2BF0021FFF7BBBF10B590B1D0E923
:10969000012301689B1ADBB20A60013BDBB2FF2B9E
:1096A000026802D10020107110BD11684C1C1460BA
:1096B0000B70F2E70E20F7E737B5054600240DF1F1
:1096C00007008DF80740FEF797FD2A686B68116860
:1096D00099420ED9481E106011F8013CEC68298AA5
:1096E00001FB0344AB6811791B1ADBB2994238BF06
:1096F00013719DF80700FEF7A3FD204603B030BDAF
:1097000037B5054600230DF107000C468DF80730EC
:10971000FEF772FD2A681368591C1160E968641A23
:10972000298AB4FBF1F41C709DF80700FEF788FD50
:1097300003B030BD826810B504462AB143690168A0
:10974000006998470023A36010BD0EB403B50399C8
:1097500021B104AB01AA019300F076F802B05DF8E4
:1097600004EB03B070470A2938B504460D4602D110
:109770000D21FFF7F8FFA3682268591CA160D5549A
:10978000D4E901329A4204D32046BDE83840FFF7BD
:10979000D1BF38BD2DE9F84F9846DDE90A4315469B
:1097A00082460F460A464FF00109AA420FD2C14530
:1097B00038BFC14613F0010B01D16CB9002401265A
:1097C000B8F1010F1BD908F1FF386E43F8E709F132
:1097D0000109B2FBF5F2E8E79B070ED5B8F1000FDF
:1097E0000CBF30262026A145E9D2013C3146504627
:1097F000FFF7B9FF002CF6D1E0E72026F3E7B7FB2F
:10980000F6F39D42E1D9DFF83C80B7FBF6F3504612
:1098100018F8031006FB1377FFF7A5FF3346AB429A
:10982000B6FBF5F6F1D2BBF1000F02D00CB1A145A9
:1098300001D3BDE8F88F20215046013CFFF793FF8C
:10984000F4E700BFEC3003002DE9F74F054617465B
:109850008846002900F03E8118F8011B49B92B7B8E
:10986000002B00F03781284603B0BDE8F04FFFF72A
:1098700061BF252940F0B780002698F800302D2BD5
:10988000424608F1010823D0302B24D02B2B25D0C1
:1098900000242A2B02F1010123D13B681A1D1B6809
:1098A0003A601C440A4613782E2B26D101324FF021
:1098B000000A104610F8011BA1F1300CBCF1090F91
:1098C0001DD80A2303FB0A13A3F1300A0246F0E76E
:1098D00046F00106D1E746F00206CEE746F0040660
:1098E000CBE711F8013CA3F130000928DBD80A22AC
:1098F00002FB0434303C0A46CBE74FF0000A12F872
:10990000011B01F0FB0068289046F8D0782909D89F
:109910006F290CD8632962D022D8252963D0582911
:1099200000F0888098F80030002B95D197E77039C7
:109930000829F7D801A353F821F000BFAF9A02001D
:109940002599020025990200459A020025990200F6
:10995000239A02002599020025990200359A0200F7
:10996000642901D06929DDD13A68D2F80090111D2F
:1099700089EAE9723960A2EBE9724FF0010B092A1A
:1099800035DCD34538BFD3462CB1B9F1000F01DB2C
:10999000720700D5013CB30702D5BAF1000F03D01E
:1099A000F00701D44CBB0024B9F1000F2DDAC9F146
:1099B00000092D212846FFF7D6FE06F00302022AF1
:1099C00004D1BAF1000F01D11CBB0024CDE900463F
:1099D00053460A2249462846FFF7DCFEA2E73B68C9
:1099E0001A1D19783A602846FFF7BDFE9AE70A2348
:1099F0000BF1010BB2FBF3F2C1E7A345D4D2202156
:109A00002846013CFFF7AFFECCE77107D5D52B21E7
:109A1000D0E7A345DAD230212846013CFFF7A3FE68
:109A2000D2E73968CDE900460A1D3A6053460A225A
:109A30000968D0E739680A1D3A60CDE90046534607
:109A40001022F5E73B681A1D3A6016F00106D3F8BC
:109A5000009024D1B9F1000F03D0484609F07CF9F9
:109A60000646B4421DD809F1FF3919F8011F002933
:109A70003FF458AF2846FFF776FEF6E72846013652
:109A8000FFF771FE19F806100029F7D1A642BFF4BE
:109A900049AF20212846013CFFF765FEF6E7002686
:109AA000F0E720212846013CFFF75DFED9E73B683F
:109AB0001A1D3A60302128461C68FFF754FE7821B1
:109AC0002846FFF750FE00220823CDE90032214648
:109AD000102280E703B0BDE8F08F00BF13B50B463E
:109AE000114680B9104B1148114AC01A0E23C00804
:109AF0000093104B0004104940F00100FDF777FF80
:109B00000E2002B010BD4BB9074B08480B4AC01AD3
:109B1000C0080E2300930004064BECE703601B68AB
:109B200002B0BDE810401847542E0300AC2E0300CD
:109B3000FC300300B8320300013103003031030070
:109B40002DE9F743DDF8288088B93E4B3E483F4A6F
:109B5000C01AC0080E243E4B009400043D4940F05A
:109B60000100FDF744FF204603B0BDE8F0834AB989
:109B7000344B3548384AC01AC0080E24344B009480
:109B80000004EBE7D0F800E0BEF1000F09D12D4B47
:109B90002D48324AC01AC00808242D4B00940004F6
:109BA000DCE74BB9274B28482D4AC01AC0080924C6
:109BB000274B00940004D1E74568D5F80490B3FB27
:109BC000F9F509FB15354DB11E4B1F48254AC01A42
:109BD000C00809241E4B00940004BFE78D0709D07C
:109BE000184B1948204AC01AC0081024184B00947A
:109BF0000004B3E712F0030F09D0124B12481B4ABE
:109C0000C01AC0081024124B00940004A6E7C568CF
:109C1000A9420DD34D1EEC180569AC4208D8CDF809
:109C20002880DEF80C40A44603B0BDE8F04360474E
:109C3000044B05480E4AC01AC0081024044B009477
:109C400000048BE7542E0300AC2E0300FC3003000D
:109C5000A5320300013103007E3103002A310300E5
:109C60003D31030084310300AE310300C6310300EF
:109C7000E9310300F7B580B92A4B2B482B4AC01AAB
:109C8000C0080E242A4B009400042A4940F0010029
:109C9000FDF7ADFE204603B0F0BDD0F800C0BCF12A
:109CA000000F09D11F4B2048234AC01AC0080824BE
:109CB0001F4B00940004E8E74AB91A4B1A481F4AA0
:109CC000C01AC00809241A4B00940004DDE7456857
:109CD000D5F800E00EF1FF350D4209D0114B1248C6
:109CE000174AC01AC0081024114B00940004CCE796
:109CF000C568A9420CD34D1E0EFB02540569AC4247
:109D000006D8DCF81040A44603B0BDE8F040604738
:109D1000044B05480B4AC01AC0081024044B009499
:109D20000004B2E7542E0300AC2E0300FC30030005
:109D300092320300013103002A3103003D31030058
:109D4000103203003632030029DF704728DF7047E6
:109D500070B503689E6886B004460D466EB1142245
:109D60000021684608F0A3FFA368059323790195B5
:109D70002BB1012B0DD06846B04706B070BD012352
:109D80008DF8003023690293E368039363690493B9
:109D9000F1E702238DF80030E3681B030293F5E737
:109DA0000846704700207047024B187A003818BFE9
:109DB00001207047002D0020034B187A0122B0FAD1
:109DC00080F05A7440097047002D002008B51046F5
:109DD0001A4608F043FF002008BD000008B5142211
:109DE0000021044808F063FF0348FFF7F8FA002059
:109DF00008BD00BF002D0020F02C002010B5094C3C
:109E0000094B43602046FFF737FC40B907F018FDC7
:109E1000064920741C2306488C22FFF7CDFA002047
:109E200010BD00BF002D0020CC320300642C0020A8
:109E3000F02C002038B5234D234C2B7A3BB9234915
:109E40002348FFF728FB206008B9686038BD02236B
:109E500024682B72237973B1012B24D0204603216F
:109E6000FFF776FF00232B726B6018491848BDE896
:109E70003840FFF73BBBD4E90523D21AB2F5805F27
:109E8000D4E9031028BF4FF480529208012A38BF4A
:109E9000012219441844FFF757FF50B11128DDD1B2
:109EA00001232B72D2E7D4E903031844FFF74EFFD6
:109EB000F3E72B7C002BC9D1BDE83840022000F02D
:109EC00009B800BF002D0020182D0020142D0020FF
:109ED000F02C002038B5234C237A002B41D0022BE4
:109EE00009D1032830D0204B00221B68E2601A7988
:109EF0003AB1012A22D0637C7BBBBDE83840FFF732
:109F000099BFD3E905128D1AB5F5805F94BF521938
:109F100002F580529A619142EDD102284FF0000380
:109F200008BF19462372104B18BF0D211868FFF7A0
:109F30000FFF0E490E48FFF7D9FADCE71A69013224
:109F40001A615B699A42E7E7E3680133082B01D89D
:109F5000E360D0E70023E360DFE7BDE8384007F0C7
:109F60005FBC38BD002D0020182D0020142D0020CE
:109F7000F02C0020831E012B01D8FFF7ABBF7047E8
:109F800000F0FD03012B08D1044B00225A74421E3D
:109F9000504250411874FFF74DBF7047002D00200C
:109FA00010B5064C201DFFF767FB28B9637C1BB971
:109FB000BDE81040FFF73EBF10BD00BF002D0020E0
:109FC0002DE9F34180460D46104801A916461F466B
:109FD000FFF727FA0446B0B118220021043008F038
:109FE00066FE2D0B0123237101A90848C4F80080E7
:109FF000A760E5606661FFF73EFAFFF7D1FF00203A
:10A0000002B0BDE8F0810420FAE700BFF02C002088
:10A010002DE9F34180460F460F4801A916461D461B
:10A02000FFF7FFF90446A8B118220021043008F018
:10A030003EFE089BA36001A9C4E903670648C4F873
:10A0400000806561FFF717FAFFF7AAFF002002B052
:10A05000BDE8F0810420FAE7F02C00202DE9F84F4C
:10A06000B0F806A04579D2F800B09DF828900AFB18
:10A0700005F5043D88460BEB0301A94203F10404F6
:10A0800088BFA5EB030BB4FBFAF607460AFB1644A0
:10A09000C2F800B04EB9AAEB04055D4528BF5D4685
:10A0A000BBF1000F04D1BDE8F88F3F68013EF1E736
:10A0B000043408EB06003C442A46B9F1000F0DD0E9
:10A0C0002146ABEB050B08F0C9FDDA452E443F688D
:10A0D00055464FF0000428BF5D46E1E701462046A3
:10A0E000EFE7FFF7D2BAF8B546790146721E05468A
:10A0F000002393422D6803D30024A64202D8F8BD62
:10A100000133F6E70F682846FFF7FAFA01343946BB
:10A11000F3E72DE9F843068ACD1C0746FFF7CCFA92
:10A12000043E35440446B5FBF6F5F0B14FF48073B8
:10A13000EDB28380C680013D076081464FF0000884
:10A14000A84512D23846FFF7B7FA064648B16379F8
:10A150000133637108F10108C9F800000760814606
:10A16000EEE72046FFF7BFFF34462046BDE8F88300
:10A1700001210430FFF768BA10B50121044604300C
:10A18000FFF76EFAC0B220B92046BDE81040FFF7D5
:10A19000AABF10BD1FB503920022009203AAFFF7C9
:10A1A0005DFF05B05DF804FB1FB50392012200922C
:10A1B00003AAFFF753FF05B05DF804FB33DF7047D8
:10A1C000064B10B500241C70054B1C60BFF35F8F5D
:10A1D0000449054800F069F8204610BD252D0020EF
:10A1E000282D0020043303001C2D002070B5244DC1
:10A1F000044601212846FFF7E0F9BFF35F8F38B925
:10A20000042C0AD01F4B1A781AB1BFF35F8F286055
:10A2100070BD1D4A147001221A701C4C1A4E6368DE
:10A22000BBB9FDF721FCFDF781FA0028FBD1164BE5
:10A230001B78023B012B15D8BFF34F8F1449154BE8
:10A24000CA6802F4E0621343CB60BFF34F8F00BFD4
:10A25000FDE71B68307898470028D6D0204600F0EC
:10A260002EF8DCE707F0ECFA08B1FFF7A7FF4FF094
:10A2700080430122C3F80025BFF34F8F20BFFDE7C5
:10A28000282D0020252D0020242D00201C2D00200D
:10A2900000ED00E00400FA05836800225A60C3E97B
:10A2A00004229A60DA601A6070470B684A6843605B
:10A2B000934208BF0023016008BF436070474368B2
:10A2C00043B10268916852680B449342436004BFF3
:10A2D00000234360704770B5446806460D46206809
:10A2E00018B1B3682946984718B923682B602560D0
:10A2F00070BD2468F3E74368186808B102681A6003
:10A3000070474368186870474368186800B9704719
:10A31000884203D102681A60012070470346006832
:10A32000F4E7000010B50D49A1F59472914201D8EF
:10A3300000200FE08C1AE30F03EBE4035B1002EB49
:10A34000C30452F83330834205D802D204F1080224
:10A35000ECE7606810BD2146E8E700BF1038030055
:10A3600008B5FFF7DFFF024B002808BF184608BDFD
:10A37000D336030003684A68896810B5D41A8C4242
:10A380008BBF5B1800230360026098BF037110BD90
:10A3900003680A68896810B59C1A8C428BBF5B1AE7
:10A3A00001230360026098BF037110BD037910B5EB
:10A3B00004461BB1FFF7DEFF206810BDFFF7E8FF82
:10A3C000FAE74FF08053D3F83001A0F10803584268
:10A3D000584170474FF08053D3F83021082A06D1F6
:10A3E000D3F83431032B02D8024AD05C70470020E6
:10A3F000704700BF1038030008B5FFF7E2FF40B117
:10A400004FF080430022C3F80C21C3F81021C3F899
:10A410003825FFF7D6FF002846D04FF080525C4B1E
:10A42000D2F80414C3F82015D2F80814C3F8241580
:10A43000D2F80C14C3F82815D2F81014C3F82C1550
:10A44000D2F81414C3F83015D2F81814C3F8341520
:10A45000D2F81C14C3F84015D2F82014C3F84415E0
:10A46000D2F82414C3F84815D2F82814C3F84C15B0
:10A47000D2F82C14C3F85015D2F83014C3F8541580
:10A48000D2F83414C3F86015D2F83814C3F8641540
:10A49000D2F83C14C3F86815D2F84014C3F86C1510
:10A4A000D2F84424C3F87025FFF794FF18B1394B54
:10A4B000394AC3F88C26FFF78DFF18B1374BFB22C2
:10A4C000C3F81825FFF786FF70B14FF080414FF0B9
:10A4D0008053D1F8E42ED3F8583222F00F0203F063
:10A4E0000F031343C1F8E43EFFF774FF20B12C4B78
:10A4F0004FF40072C3F84026FFF763FF48B14FF0F6
:10A500008043D3F80024D20744BF6FF00102C3F8A0
:10A510000024244AD2F8883043F47003C2F888300B
:10A52000BFF34F8FBFF36F8F4FF01023D3F80C3270
:10A53000DB0728D51C4B0122C3F80425D3F80024DF
:10A54000002AFBD04FF01022D2F80C3223F0010386
:10A55000C2F80C32144BD3F80024002AFBD000229E
:10A56000C3F80425D3F80024002AFBD0BFF34F8F93
:10A570000C490E4BCA6802F4E0621343CB60BFF390
:10A580004F8F00BFFDE70A4B0A4A1A6008BD00BFA3
:10A5900000C00040005000404881030000F000402F
:10A5A0000090024000ED00E000E001400400FA05E8
:10A5B000842200200090D003074B1B5C1F2B8ABF16
:10A5C000064A4FF0A04203F01F03D2F80405D8401A
:10A5D000C04300F00100704718380300000300502A
:10A5E000074B1B5C1F2B86BF064903F01F034FF070
:10A5F000A041012202FA03F3C1F80C35704700BFF5
:10A600001838030000030050074B1B5C1F2B86BF4C
:10A61000064903F01F034FF0A041012202FA03F3A1
:10A62000C1F80835704700BF183803000003005018
:10A6300008B50020FFF7E8FF0120FFF7E5FF022043
:10A64000FFF7E2FFBDE808400320FFF7DDBF08B5D4
:10A650000020FFF7C5FF0120FFF7C2FF0220FFF730
:10A66000BFFFBDE808400320FFF7BABF0A4B185CE4
:10A670001F288ABF094B4FF0A04300F01F00D3F8FA
:10A6800004250121814021EA02000A40C3F808059F
:10A69000C3F80C25704700BF1838030000030050B2
:10A6A000014B185C704700BF1438030038B5074CE5
:10A6B000051E04F1080318BF1C4623682BB11A6855
:10A6C00022605B6828469847F7E738BD342D0020A4
:10A6D00020B9054B01225A70FFF7E8BF012802D1CB
:10A6E000014A9070F8E770472C2D002020B9034BE9
:10A6F00001225A70FFF7DABF704700BF2C2D0020EF
:10A7000038B50E4C2378B3B90D486360A36023615C
:10A71000E36000F075F8054607F092F808B900F01C
:10A720007BF801232370074BD3F800340BB10123CE
:10A73000A370284638BD8525F5E700BF2C2D0020E5
:10A74000D1A602000000014037B50D4C00230DF1E9
:10A7500007008DF80730FDF74FFDE368013BE3602C
:10A76000E36833B9074BD3F8005415B900F066F825
:10A77000A5709DF80700FDF763FD03B030BD00BF75
:10A780002C2D002000000140012813B50CD0032817
:10A7900020D038B9134B0122C3F88020BFF34F8F6C
:10A7A000BFF36F8F02B010BD0F4C00230DF10700F7
:10A7B0008DF80730FDF720FD23780BB9FFF7A0FFD8
:10A7C000E3689DF807000133E3600123A370FDF700
:10A7D00037FDE7E700F020F802B0BDE81040FFF7D2
:10A7E000B3BF00BF00E100E02C2D002000F180404D
:10A7F000002382B0036003680193019B02B070479D
:10A80000044A137923B901211060918018467047DA
:10A8100085207047402D0020074B1A68D20704D4CA
:10A82000C02283F8002301221A604FF080430122E6
:10A83000C3F81825704700BF00E100E04FF08042E8
:10A8400008B50223C2F808334FF48270FFF7CEFF39
:10A850000123D360D2F81834DB03FBD408BD000019
:10A860004FF0804110B5D1F8003163B14FF48070E2
:10A87000FFF7BCFF0D4B58790122C1F8082310B92E
:10A880005A711B6898474FF08042D2F8043163B187
:10A890004FF48270FFF7AAFF0223C2F80833034B7C
:10A8A000BDE810401B680120184710BD402D002056
:10A8B00000F1804000F5C040002382B003600368CF
:10A8C0000193019B02B0704703681F2B83BF03F005
:10A8D0001F03036001484FF0A04070470003005081
:10A8E00007B5019001A8FFF7EFFF019B00EB830084
:10A8F000D0F8003723F44033C0F80037D0F80037E1
:10A9000043EA0141C0F8001703B05DF804FB000002
:10A910002DE9FF470024CDE90244584D4FF48072E1
:10A92000012102F1804303F5C04390B21B68012B63
:10A9300006D1D5F804330B4202D0FFF7B9FF0C4320
:10A940000432B2F5907F4FEA4101EAD14B4BD3F884
:10A950007C31012B11D14FF4BE70FFF7A9FF4FF0EE
:10A96000A04344F00044D3F820250292C3F82025E8
:10A97000D3F820280392C3F82028E3B2D3B1404F84
:10A9800000250126344210D0AB0003F1804303F5CB
:10A99000C043D3F81005D3F8101557F8253023B16C
:10A9A000C1F30141C0F3052098470135082D4FEA56
:10A9B0004606E7D1002C59DA314D324C324E4FF079
:10A9C0000008012716F9013B5A1C3CD0C3F3C20111
:10A9D00004A801445FFA83F911F8081C03F03F0250
:10A9E00003F0070307FA03F319422CD001A80192E0
:10A9F000FFF76AFF019B03F5E07350F82330C3F3C0
:10AA0000014ABAF1020F0CBF032102211046FFF7E1
:10AA100067FF01A80192FFF757FF019B07FA03F3B5
:10AA2000C0F82035AB1893F9303055F8233053B1C6
:10AA30004FEA9911032904D0BAF1020F19D1012963
:10AA400001D11046984708F10108B8F1040FB9D1B7
:10AA50004FF0A043D3F820250292C3F82025D4F864
:10AA600020350393C4F820351343A7D104B0BDE8C3
:10AA7000F087BAF1030FE6D10229E1E70060004058
:10AA8000482D002000030050A82D0020014B1B681A
:10AA9000184700BFB42D00201F288ABF094B4FF074
:10AAA000A04300F01F0003EB8000D0F8003723F430
:10AAB0004033C0F80037D0F8003743EA0141C0F80E
:10AAC000001770470003005008B5094B1B7853B1BD
:10AAD0000020FFF799FD0120FFF796FDBDE8084033
:10AAE0000320FFF791BDBDE80840FFF7A1BD00BFFF
:10AAF000BC2D0020F8B57A4C237805461BB1002305
:10AB00002370FFF7E1FF172D00F28780DFE805F0E3
:10AB10000C1717425364757F878C878C9499999989
:10AB20009999C3C8D0D8E3E3FFF7CEFF6D48FDF78E
:10AB30008EFA6D4B002204461A702046F8BD0020A4
:10AB4000FFF73AFDF0B10020FFF75EFD022D0CBFCC
:10AB50004FF4E1644FF47A64634B1D7000254FF4A9
:10AB600000464FF47A7029464FF4FA620023E4FB62
:10AB7000060107F078FF2A460146BDE8F84059482B
:10AB8000FDF74DBAFFF72CFD022D0CBFC8244FF482
:10AB9000C874E1E70020FFF70FFD40B10020FFF788
:10ABA00033FD4FF44874504B03221A70D6E7FFF779
:10ABB00017FDC824F7E70020FFF7FEFC38B100209E
:10ABC000FFF722FD4FF47A64474B0422EDE7FFF7CD
:10ABD00007FD4FF4C874F7E70020FFF7EDFC48B11C
:10ABE0000020FFF711FD404B05221A7040F6CD41C1
:10ABF0000022C2E7FFF7F4FCF5E70020FFF736FD7F
:10AC0000394B06221A70002240F26661B5E7002037
:10AC1000FFF7E6FC344B07221A7000248DE7012071
:10AC20002070FFF723FDEEE701202070FFF71EFDE7
:10AC300000224FF40051A0E7FFF709FD2A4B0C2238
:10AC4000EAE72A482A4EFDF702FAD5F11105044633
:10AC50001CD0D8B9012D13D0C820454321464FF44C
:10AC600000474FF47A704FF4FA620023C5FB0701E6
:10AC700007F0F9FE224601461C48FDF7D0F90446CC
:10AC80000220FFF7ADFC0123337056E70220FFF7E7
:10AC9000BBFC0023F8E7FFF717FF134B1222BBE7BB
:10ACA000FFF712FF0020FFF79BFC0F4B1322B3E7C7
:10ACB000FFF70AFF0120FFF793FC0B4B1422ABE7D1
:10ACC000FFF702FF0020FFF78BFC0120FFF788FC55
:10ACD000054B1522A0E7FFF7BAFC034B1D709CE75C
:10ACE000102E0020E02D0020112E0020C02D00206D
:10ACF000BC2D0020044B1B6813F0010301D0FFF7AB
:10AD0000F9BE1846704700BF0C2E0020032811D84A
:10AD1000012A0AD101290FD100F10E02D2B20D4B46
:10AD200000EB40001A54002070470129F7D0022997
:10AD300004D049B1072070470022F8E7054B00EB2B
:10AD4000400018444270EEE7024B00EB400018440C
:10AD50008270E8E7002E0020032808B506D8FFF728
:10AD60009FFC0321FFF798FE002008BD0620FCE7AA
:10AD700008B5012202210020FFF7C8FF08B107280B
:10AD800010D1072202210120FFF7C0FF08B10728D8
:10AD900008D100210A220846FFF7B8FF10B10728A2
:10ADA00008BF002008BD00000388102B10B502D09A
:10ADB000112B1ED010BD1A4C2168B1B901220846D2
:10ADC000FFF7A4FF08B1072824D1072202210120A0
:10ADD000FFF79CFF08B107281CD1042202210020A4
:10ADE000FFF794FF08B1072814D1236801332360CB
:10ADF000E0E70B4A1368013B1360002BDAD1FFF741
:10AE0000B7FF0028D6D0074B1B68002BD2D0BDE877
:10AE100010401847034B1B68002BE6D09847E4E727
:10AE2000182E0020142E002008B50020FFF794FFF4
:10AE300008B1062806D10120FFF78EFF10B10628C1
:10AE400008BF002008BD07F0ABBC000008B5094AE8
:10AE500009480121FDF7D8F808B1FCF73DFF074884
:10AE60000022A421FDF7DBF818B1BDE80840FCF78B
:10AE700033BF08BD47AE02005C380300202E00201F
:10AE800008B500F021FE00F091FA00F0F3FC00F0AC
:10AE900065FC00F07BFC00F09FFA00F0C7FA00F0C0
:10AEA000A9FC00F0D1FA00F07FFB00F09BFB00F062
:10AEB0007BFC0C4B0C480D49C01AC008000440F044
:10AEC0000300FCF77DFD002000F052FA07F060FC63
:10AED000074807F027FCFFF7B9FFFCF7ADFFFCF7C9
:10AEE00025FCFAE7542E03007C2E03003E380300B5
:10AEF0007C24002076DF704778DF70477ADF704768
:10AF00007CDF70478FDF704733DF7047FCF7E4BEAC
:10AF100008B50C490C48FFF749FA4FF6FE72C1B26A
:10AF20000A4805F061FC132807D943F2014398420F
:10AF300007D0BDE80840FCF7CFBE054BC340DB0798
:10AF4000F7D508BD883300209833002074330020E3
:10AF500001810A002DE9F043074685B016461C46DC
:10AF6000CD18A2EB03084FF0000902ABA01C42462B
:10AF7000294613FA80F0CDE9029907F06FFE0F4AD7
:10AF80000F4B11781B8899B90093082202AB384601
:10AF900006F084FA38B90134A4B2A64205F10105DD
:10AFA00008F1FF38E1D20C9B1C8005B0BDE8F083AE
:10AFB00002AA0821384606F0D0FAEBE7F833002061
:10AFC000982200207FB508220346019201A94FF67E
:10AFD000FF7202A803F01EFF08B1FCF77DFE019985
:10AFE00002A803F0EFFE08B1FCF776FE07B05DF8AB
:10AFF00004FB000000B5B3B0082874D8DFE800F007
:10B000004B0519202C38445976004448444B454997
:10B01000C01AC008000440F00300FCF7D1FC052072
:10B02000FFF768FE00285ED033B05DF804EBFCF754
:10B0300053BE3A483A4B3C49C01AC0080004EAE7FC
:10B04000374B36483949C01AC008000440F00300A5
:10B05000FCF7B6FC0220E3E7314B30483449C01A14
:10B06000C008000440F00300FCF7AAFC0420D7E766
:10B070002A482B4B2F49C01AC008000440F0030097
:10B08000FCF79EFC0320CBE72448254B2A49C01A35
:10B09000C0080004F2E70020FFF72CFE08B1FCF71F
:10B0A0001BFEFFF7C1FE08B1FCF716FEFFF72CFFF1
:10B0B000B8E70823CDE9023312AA03AB02A904A81A
:10B0C00003F068FE08B1FCF707FE0220FFF77AFFE5
:10B0D000039B0093029A194812AB04A901F013FADA
:10B0E00008B1FCF7F9FD33B05DF804FB144B188888
:10B0F0004FF6FF739842F6D012A903F035FF0528EA
:10B10000F1D008B1FCF7E8FD0620FFF75BFF0DF179
:10B1100059010A4801F0E4F9E2E700BF7C2E030080
:10B12000542E0300603803006A380300803803009F
:10B1300092380300A4380300C5380300402F0020D4
:10B14000FA3300207FB5082301934FF6FF720123E5
:10B1500001A902A803F05EFE08B1FCF7BDFD0B4B90
:10B160000B48019A0B49C01AC008000440F00300C4
:10B1700008230132FCF731FC019902A803F000FE1C
:10B1800008B1FCF7A9FD07B05DF804FB542E0300DD
:10B190007C2E0300E638030008B5FFF7D3FF05480F
:10B1A000032101F059F818B1BDE80840FCF794BD3F
:10B1B00008BD00BF402F002010B5044604F080FBFE
:10B1C000204604F05BF92378082B0BD00C2B05D01C
:10B1D000022B02D10D4BA2881A8010BDBDE8104091
:10B1E000FFF7DABF237CDB07F7D5237A072BF4D1EF
:10B1F000074B08480849C01AC008000440F0030083
:10B20000FCF7DEFBBDE81040FFF79CBFFA330020DF
:10B21000542E03007C2E0300133903007FB5194C14
:10B2200094F83E30B3B1B8B194F83C500C235D4370
:10B2300066190DF10E030093D6E90110635D727873
:10B24000FFF788FE132807D1BDF80E3072789A42B6
:10B2500002D3635504B070BD94F83C300C2202FB5D
:10B26000034200215160013394F83E20DBB2013AE1
:10B27000052B84F83C3084F83E2008BF84F83C104D
:10B28000E8E700BFF02E002037B505883B2D0446C7
:10B2900055D007D8112D2CD0212D42D0102D0BD0F8
:10B2A00003B030BD562D4AD0572DF9D1012003B03F
:10B2B000BDE83040FFF7B2BF234B24482449C01AF1
:10B2C000C008000440F00300FCF77AFB0720FFF7FA
:10B2D00011FD08B1FCF700FD1E4BA1881E48198026
:10B2E00002F0D0FE0028DBD003B0BDE83040FCF710
:10B2F000F3BC154B15481949C01AC008000440F0AA
:10B300000300FCF75DFB0020FFF788FF114B4FF6B1
:10B31000FF721A80124B002228461A70FFF7EAFCCF
:10B32000E0E7002380888DF8043001A98DF805300E
:10B33000FFF7E8FD0028B3D0FCF7CEFCB0E7A0880B
:10B340001321FFF7D7FDCDE7542E03007C2E030019
:10B350004739030098220020FC33002051390300B4
:10B36000C0330020FCF7B8BCFCF7B6BCFCF7B4BC9B
:10B3700008B580B10A4B0B480B49C01AC00800043D
:10B3800040F00300FCF71CFB03F004FE38B1BDE8FD
:10B390000840FCF7A1BCBDE80840FFF7FDBE08BDB2
:10B3A000542E03007C2E03005E39030008B5FCF721
:10B3B000F9FD08B1FCF790FC054A06480121FCF7AD
:10B3C00023FE18B1BDE80840FCF786BC08BD00BFED
:10B3D00011AF0200C83903001FB5112312498DF8BF
:10B3E0000430152201A8FFF78BFD08B1FCF774FCAF
:10B3F00040F2C130FFF780FD08B1FCF76DFC062379
:10B40000ADF808301822ADF80C3002A82B23ADF8A7
:10B410000A20ADF80E30FFF771FD08B1FCF75CFCB7
:10B4200005B05DF804FB00BF6B39030008B50548A3
:10B43000002102F015FD18B1BDE80840FCF74CBC36
:10B4400008BD00BFC43300202DE9F04794B04B4B3A
:10B450004B48029302A902F003FE08B1FCF73CFC42
:10B4600041F61513ADF802304EF6EE630224ADF846
:10B47000043040220123002102A8ADF806308DF8E7
:10B48000004007F014FC02A83E4901F05DFB02A851
:10B49000CDF840D08DF8444005F036FA08B1FCF7FD
:10B4A0001BFC00240123CDE902448DF80C3003F18C
:10B4B000023361333448049402A9059305F020F95E
:10B4C00008B1FCF709FC314DDFF8D880304E2C6014
:10B4D000012740F202296C60C8F800403460C8F8C7
:10B4E00004407460082302244FF0030A0021402224
:10B4F00004A82B80EF70A5F80490AC71A8F8007038
:10B5000088F80340A8F80490348086F803A0A6F8D1
:10B51000049007F0CCFB1F4B02931F4B03934C236B
:10B52000ADF82C301D4B0A931D488DF8107040F279
:10B53000011302A98DF8127005958DF81870CDF8D9
:10B540001C808DF820700996ADF838308DF83BA03E
:10B550008DF834408DF83C408DF84A40ADF84C9061
:10B560008DF84E40ADF844908DF8464005F0B8FD9A
:10B5700008B1FCF7B1FB14B0BDE8F0876DB3020071
:10B58000FC3300208139030074330020382F002061
:10B59000302F002081B602000DAF02002C240020C5
:10B5A0009C2200200834002000B589B01822002118
:10B5B00001A807F07CFB4FF4F0234FF4A032CDE953
:10B5C000022303238DF8103001A8054B079301F0E7
:10B5D000ABF808B1FCF780FB09B05DF804FB00BFD5
:10B5E00065B30200054B00229A8783F83E205A601B
:10B5F0001A61DA619A625A63704700BFF02E002028
:10B60000F0B51D4F85B084B20DF10E0300930546D1
:10B610000023224638460E46FFF79CFC13281FD114
:10B62000BDF80EC0644519D3144B93F83E40062C68
:10B6300014D093F83D200C2151430132D2B2581856
:10B64000052AC0E9016704F1010408BF002203F8DC
:10B6500001C0457083F83E4083F83D2005B0F0BD41
:10B6600030F00802FAD01128F8D043F2014290429B
:10B67000F4D0FCF731FBF1E79C220020F02E0020F3
:10B680001FB50B78052B35D0062B38D0042B34D1C1
:10B690008B79022B31D1CB797BBB0DF10F0201925B
:10B6A000244A2548128800921946012205F094FF89
:10B6B00008B1FCF711FB214C9DF80F30227803F004
:10B6C0000203FAB9CBB11E4B1E481F49C01AC0086D
:10B6D000000440F00300FCF773F91020FFF70AFBA9
:10B6E00008B1FCF7F9FA19490620FFF789FF012391
:10B6F000237002E0164B01221A7004B010BD144BE7
:10B700000022F9E7002BF8D10D4B0E481149C01A61
:10B71000C008000440F00300FCF752F91120FFF7C5
:10B72000E9FA08B1FCF7D8FA0B490620FFF768FFE1
:10B730000023DDE7982200209C220020C033002057
:10B74000542E03007C2E0300953903009222002022
:10B75000F8330020AD3903008C22002007B505F036
:10B76000F1FF08B1FCF7B8FA002301A90120019309
:10B7700006F0C2F808B1FCF7AFFA01A806F05AF9D2
:10B7800008B1FCF7A9FA03B05DF804FB08B5054A57
:10B790000A210820FCF7C8FA18B1BDE80840FCF7F8
:10B7A0009BBA08BD402E002007B503F037FA08B158
:10B7B000FCF792FA31238DF8003007238DF8013021
:10B7C00010238DF80230684603238DF803308DF87E
:10B7D000043003F0BDFA08B1FCF77EFA044803F028
:10B7E0009FFA08B1FCF778FA03B05DF804FB00BFDC
:10B7F000B9B1020000B5ADB0A422002101A807F044
:10B8000056FA02238DF8043040F20163154AADF870
:10B8100006300123ADF8143006928DF87D308DF896
:10B820007E30282240F6B833CDE9232340F20113BD
:10B830004FF44861ADF8803044F25063CDE92513F0
:10B84000094B2A9309480A4B2B9301A900F08FFC5E
:10B8500008B1FCF741FA0548012100F085FC2DB044
:10B860005DF804FB88220020F5AF0200402F002085
:10B8700069B3020008B5FEF7A3FC18B1BDE80840A3
:10B88000FCF72ABA08BD704738B51B481B4D00228B
:10B89000012410F8013B01321F2B86BF03F01F0368
:10B8A00029464FF0A041D2B204FA03F30D2AC1F8A1
:10B8B0000835EED11249114D0A240C2011F8013B34
:10B8C0001F2B86BF03F01F032A464FF0A04203F54B
:10B8D000E073013C14F0FF0442F82300EED121464E
:10B8E0001A22084807F0E3F921460748BDE8384026
:10B8F0001A2207F0DCB900BFF6390300000300503C
:10B90000DB390300103400202A3400202DE9F84FE1
:10B91000334EDFF8DC80334FDFF8D8900D2546F04A
:10B92000010618F8012B1F2A88BF02F01F0202F53A
:10B93000E0738CBFCA464FF0A04A4FF0010B0BFAE0
:10B9400002F440F203314AF823104FF4F060CAF8D1
:10B950000C45B0470022DFF8A0C013461CF8011BBD
:10B960001F298ABF48464FF0A04001F01F01D0F8C0
:10B97000100520FA01F1C90758BF0BFA02F102F1D4
:10B98000010258BF0B430A2AE8D13A889BB29A4277
:10B990001CBF3B80144BCAF808451CBF05221A7017
:10B9A0006B1E13F0FF0507F10207BAD10E4A137898
:10B9B00033B1013BDBB213702BB14FF47A40B04787
:10B9C0000120BDE8F88F074B084A03F1180153F82E
:10B9D000040B42F8040B8B42F9D11B881380EFE76C
:10B9E000F03903002A34002078240020103400208D
:10B9F000F639030000030050DB390300014B33F834
:10BA000010007047103400200448054B0549C01A47
:10BA1000C008000440F00300FBF7D2BF7C2E0300F7
:10BA2000542E0300CC390300704708B5FCF716FB11
:10BA3000000908BD08B5FFF7F8FF4FF6FF73B0FB2C
:10BA4000F3F3184480B208BD3CDF704708B5B1215C
:10BA50000020FFF7F9FFBDE808400220FEF7C6BB53
:10BA6000002070477047704700F002B87047000030
:10BA700037B5114B1149044611481B1ADB081B044A
:10BA800043F0030022460190FBF79EFF002301983C
:10BA9000651E1A4615F8011F99400833402B42EAEB
:10BAA0000102F7D10749FBF78FFF21460820FFF776
:10BAB000A7FD012003B030BD7C2E0300883A0300AF
:10BAC000542E0300923A030008B54FF48041002041
:10BAD000FBF7DCFD08B1FCF7FFF8BDE80840FBF719
:10BAE00013BD0369C26893429CBF80681B18013B69
:10BAF000981A70472DE9F843D0E902940546A9EB5E
:10BB000004084068904520440F46144404D907F0C7
:10BB1000A5F8EC60BDE8F8834246A4EB090407F001
:10BB20009DF86868224607EB0801F0E72DE9F84325
:10BB3000C5680646894617464FF000083469B36861
:10BB40007068A54228BFE418013C621B5C1BBC4224
:10BB500028BF3C46944228BF144649462844224602
:10BB600007F07CF8B3682544AB4208BF00253F1BB3
:10BB7000A044A144F560E1D14046BDE8F88300004F
:10BB800010B5114C1149A1610223C4E90433A16429
:10BB90000F4B1049E361E1644FF40073102101225F
:10BBA0002362216500230C49A362E01D6362A36543
:10BBB0006365E262E26507F0ADF80849204607F0E8
:10BBC000A9F82023A37110BD44340020A33A030038
:10BBD000CC340020BC340020AC3A0300B03A03005F
:10BBE00070B5164B182400FB04451D4404FB0033BC
:10BBF0001646DC6A012C0ED0022C18D0E4B9284677
:10BC0000FFF76FFF864204D832462846FFF772FFDF
:10BC10003446204670BD2846FFF763FF864234460F
:10BC200028BF044622462846FFF764FFF1E728466E
:10BC3000BDE87040FFF77ABF0024EAE744340020F3
:10BC4000FFF79EBF6DDF704779DF70477DDF70477C
:10BC500064DF70472DE9F04F85B000250E9CBDF8DC
:10BC60003CB0B4F800A00191074690461E46A94694
:10BC70003A884A450DDC45B12388013BA3EB0A0312
:10BC80009BB2FF2B3AD806F80A30002005B0BDE879
:10BC9000F08F7A6852F82900039000220DF10B0111
:10BCA00003A8FFF7D5FF0028F0D19DF80B204245EF
:10BCB00021D12288002D14BF0020022002EB0801B0
:10BCC000014459451ADC3DB9013292B2019B2280F0
:10BCD000B35422880132228022880DF10B013244B4
:10BCE00003A8FFF7B5FF0028D0D121889DF80B20CD
:10BCF0000A442280012509F10109B9E70C20C5E7B2
:10BD00002DE9F341089FBDF824801546CDE9007860
:10BD1000022204461E46FFF79DFF50B9334610220B
:10BD200029462046CDE9087802B0BDE8F041FFF78A
:10BD300091BF02B0BDE8F0812DE9F04F00231788D4
:10BD4000138090F82D3085B006460D4614465BB33F
:10BD5000082F01D80C2028E102A8FFF773FF002864
:10BD600040F023812388DDF809100822EA54238853
:10BD700001339BB21B222380EA54238801339BB2F8
:10BD8000EA182380E950BDF80D30938023889DF890
:10BD9000082006339BB212F0FE0218BF0122238056
:10BDA000EA54238801332380B378FBB1238804331A
:10BDB000BB42CFD802A8FFF747FF002840F0F5802C
:10BDC00023880322EA54238801339BB2192223805B
:10BDD000EA542388BDF8082001339BB2E918238078
:10BDE000EA54120A4A70238802332380F2789AB107
:10BDF0002388D91CB942ADD80221E95423880133E4
:10BE00009BB201212380E95423880B449BB22380F9
:10BE1000EA5423880B4423807268AAB12388D91C72
:10BE2000B94297D8022192F90020E95423880133BE
:10BE30009BB20A212380E954238801339BB22380DB
:10BE4000EA542388013323803389002B40F0A180FA
:10BE5000338A5BB1CDE900472B460722032106F167
:10BE60001000FFF74DFF002840F09F80338B5BB13F
:10BE7000CDE900472B461522142106F11800FFF7E3
:10BE80003FFF002840F09180326A002A40F0908005
:10BE9000D6F82480B8F1000F30D0B8F804302188EB
:10BEA000981C8A1C0244BA423FF654AFFE283FF663
:10BEB00051AF03336B54238801339BB2FF2223809D
:10BEC000EA54238801339BB22380B8F80020EA5457
:10BED000E918120A4A702088023080B22080B8F82F
:10BEE00004205AB1D8F8081000296BD0284406F075
:10BEF000B5FE2388B8F804201344238096F82C302C
:10BF0000002B40F09880307800284ED03388012BE9
:10BF100058D0228802F1020CBC453FF61BAF012825
:10BF200005D17378023313449F42FFF413AF023FED
:10BF3000BF1ABFB202A905EB0C00ADF80870FFF7FD
:10BF400085FE90BB3178BDF80830022900F0B98039
:10BF500072789A4202D39F4280F0B180012940F06A
:10BF6000B280974293B2C0F0AE80ADF8083008219D
:10BF7000BDF80830FE2B3FF6EDAE22880133AB54FE
:10BF80002288013292B22280A9542288134423804D
:10BF90000BE0CDE900472B460622022106F10800FE
:10BFA000FFF7AEFE00283FF453AF05B0BDE8F08FB9
:10BFB000B4F800C00CF10603BB423FF6CBAE1188CB
:10BFC000052901D80720F0E76FF4486E01EB0E0356
:10BFD0009BB24FF27D3E7345F4D95388052BF1D9BE
:10BFE0006FF44860181880B27045EBD94FF6FF70B7
:10BFF000814201D09942E5D8052305F80C30238809
:10C0000001339BB212212380E954238801339BB270
:10C0100023801188E954E818090A41702388023303
:10C020009BB223805288EA54E918120A4A70238886
:10C03000023323802CE7B36A002BC3D04FF00008F3
:10C040004FF00C0A4FF0160BB16A5FFA88F20AFB48
:10C0500002F201EB0209B9F80430981CFE283FF601
:10C0600079AE208803332B54238801339BB223807D
:10C0700005F803B0238801339BB223808A5AEA541F
:10C08000E918120A4A702088023080B22080B9F87C
:10C0900004205AB1D9F80810002993D0284406F09A
:10C0A000DDFD2388B9F804201344238096F82C2062
:10C0B00008F101085FFA88F39A42C5D823E70921FD
:10C0C00056E79F42FBD2ADF8087050E730B5C8B1D3
:10C0D000F2B10024651C8D4206DA1588A54212D8FB
:10C0E00005196D789D420ED1A14211D9005D48B16C
:10C0F000013880B230B10234A3B210FA84F4A14204
:10C1000006DB138030BD055D01352C44A4B2E1E7A8
:10C110000020F7E713B513460022ADF806200DF115
:10C1200006020446FFF7D2FF10B1BDF80630E01852
:10C1300002B010BD72DF704773DF704738B501225F
:10C1400004460D46B0F81414D0F81004FFF7E2FFCF
:10C1500000B1057004F13C0204F5826104F1540061
:10C16000BDE83840FFF7E6BF80F830107047F8B5FB
:10C1700004460F4600296BD0002869D091F87A3028
:10C180001BB191F89830002B64D14FF0000C84F86B
:10C1900002C007F178060FCE251D0FC50FCE0FC5C3
:10C1A00096E8070085E8070084F830C0D7F8A43087
:10C1B0006363D7F8A830A36304F582624FF6FF7378
:10C1C000C4F826C4A4F82434C4F82024C4F829C42C
:10C1D00022780AB984F8543094F82430002B14BF24
:10C1E000EE231F2304F15501C4F81014A4F81434ED
:10C1F00004F214423846FFF79FFD40BB94F8243008
:10C20000002B14BFEE231F2304F23121C4F81814AD
:10C21000A4F81C3404F21C4207F13C00FFF78CFD2B
:10C22000A8B9A369A4F848304FF480730125A4F895
:10C23000503063692064014684F83C50636404F123
:10C240003C0204F15400FFF775FF00B92570F8BDFA
:10C250000E20FCE70720FAE7F8B5067804460D46FD
:10C26000002E00F006810023C0F82634C0F82934DF
:10C27000C388817000F226470BB1012903D0E3790E
:10C2800043B1022D06D1636BABB1012284F82D249A
:10C290000820984704F2274304F22D4113F8012B9C
:10C2A00012B99942FAD116466B1E032B53D8DFE818
:10C2B00003F0050B0F1284F82D34EBE7A3791BB1C3
:10C2C00094F8243003B95EB9E3790BB1002E44D160
:10C2D000237A002B43D1637A002B0CBF0025042561
:10C2E000636BA570002B3CD0033D012D39D86279DA
:10C2F000002A36D094F82E249ABB84F830240122E8
:10C3000084F82F240720984704F13C0518220021C7
:10C31000284606F0CCFCE26A0123511E994284F8BB
:10C320003C3001D9042A00D1D3B284F8513094F8BA
:10C33000243043B1A26A511E012902D9042A18BF30
:10C34000012284F85220A278042A1CD8DFE802F0E7
:10C35000780D23365A000025C2E70225C0E70325E1
:10C36000BEE7002384F82F34CEE7012384F8313070
:10C370000023C4E91073C4F82034022384F83C304D
:10C380008023A4F84830A378002B5DD1636B002B89
:10C390006BD1002068E0002B14BF0723032384F82F
:10C3A0003C302369A4F8483000230222C4F820342A
:10C3B000E36884F8312027646364E4E762696264B7
:10C3C000A269A4F8482013B1062384F83C306379AD
:10C3D000B3B194F82E349BB994F8303483B102236E
:10C3E00084F8503004212046FFF7A8FE0028CAD167
:10C3F000052384F8313004F58263C4F82034C2E7A1
:10C400000323F6E7E2696264226AA4F8482013B1C4
:10C41000062384F83C30637983B194F82E346BB9E9
:10C4200094F8303453B1022384F85030042120466C
:10C43000FFF784FE0028A6D10623DAE70423D8E715
:10C44000002384F831309EE7D4F820142A4604F102
:10C450005400FFF76FFE38B994F8301094F8540088
:10C46000FFF76AFE002891D0F8BD94F83100984794
:10C470008FE70820F8E70388112B10B50C460AD087
:10C48000262B1FD0102B05D1C37B012B02D1838813
:10C49000A1F8243410BD0022838881F82E24B1F83D
:10C4A00024249A42F6D10B79002BF3D101212046A6
:10C4B000FFF7D2FE0028EDD0A36B002BEAD0BDE839
:10C4C00010401847037A013B012BE3D889780523F4
:10C4D0000131B1FBF3F303EB8303C91AC9B2E6E7F9
:10C4E00090F82D346BB1002380F82D340A68C0F821
:10C4F00026248A88A0F82A248A7980F82C241846D1
:10C5000070470820704790F82F345BB100990023E2
:10C510000A4314BF01221A4680F82F3480F83024D1
:10C52000184670470820704775DF704776DF704700
:10C530007ADF70477BDF7047034B1A8882420CBF5B
:10C5400018460020704700BFE8360020024B9B6968
:10C5500003B11847704700BFCC36002073B585B2D1
:10C560002846FFF7E9FF044638B3174E027A337BBB
:10C570009A420CD200F10A012846FFF7D5FFF0B12C
:10C5800011281AD002B0BDE87040FFF7DFBF0023CA
:10C590000372337C43B13B212846FFF7C7FF30F0DD
:10C5A000080301D0FFF7D2FF736933B100228DF881
:10C5B0000420ADF8065001A8984702B070BD237A58
:10C5C00001332372F9E700BFCC36002037B50B46A4
:10C5D000497A0F4A79B9D2E901141D7A0246002D31
:10C5E00018BF21465868FBF71AFD78B103B0BDE8C3
:10C5F0003040FFF7ABBF00211972536933B10122FC
:10C60000ADF806008DF8042001A8984703B030BDAE
:10C61000CC3600204B8802889A4212D842889A422F
:10C620000FD380888B8840F2F311884294BF021A9E
:10C63000421A9A4205D80844984234BF002001208B
:10C6400070470020704700000388122B70B5014628
:10C6500059D004D8102B1ED0112B44D070BD502BB4
:10C66000FCD12F4BC288DB899A42F7D1038A022B77
:10C67000F4D186883046FFF75FFF05460028EDD0ED
:10C6800001F1120000F056FA38BB6868FBF7DFFCD6
:10C690000028E3D009E0C37B012BDFD14FF6FF7008
:10C6A000FFF74AFF054620B90420BDE87040FFF7B8
:10C6B0004DBF1C4A8E880680002303721368C0F8A1
:10C6C0000A305368C0F80E3010310A30FFF7A2FF6D
:10C6D000134B6872DB89002BC0D129463046BDE878
:10C6E0007040FFF773BF8088FFF726FF04460028DD
:10C6F000B4D04068FBF7ABFC08B1FFF727FF4FF65B
:10C70000FF732380AAE786883046FFF715FF0546AA
:10C710000028A3D008310A30FFF77CFF6872DCE7FD
:10C72000CC360020FC360020F8B5064648B3054656
:10C730000FCD154F3C460FC495E8070084E807006D
:10C740003068124C3C60B0B1FFF7F2FEC0B93268FD
:10C7500013682360536863600D480E4A4FF6FF73F9
:10C7600003800D4B40F8043F0021FBF74DFC0028EF
:10C7700018BF032004E02046FFF7DCFE0028EBD0C2
:10C78000F8BD0E20FCE700BFCC360020FC360020B0
:10C79000E83600205DC5020008370020F7B51746CF
:10C7A00001900E4691B1019C6CB100252C462946A2
:10C7B00001A8FCF7CCFE18B13946A8B2B047013445
:10C7C0000135142DF3D1204603B0F0BD0C46FAE735
:10C7D0000AB1FCF79BBEFCF7B0BE73B50191019C9A
:10C7E00006466CB100252C46294601A8FCF7AFFE91
:10C7F00018B106EB440301349D800135142DF3D1AB
:10C800003046346002B070BD2DE9F047038884885B
:10C81000103B8CB005460A2B21D8DFE803F0064018
:10C8200020202020202020654700DFF8E880D8F86D
:10C830000830DB430093D8F804106846FCF7ECFEA0
:10C84000009901A8FFF7C9FF0DF108090027019B16
:10C850009F4207D3132C12D90420FBF73DFA0CB0EA
:10C86000BDE8F08739F802AB00260136514608EBE7
:10C870008600FCF762FE1E2EF7D10137E7E71F485E
:10C880002146FCF743FE1E482146FCF73FFEEB7BAA
:10C89000022BE4D11B482146FCF738FEDFE717489E
:10C8A00021460CB0BDE8F047FCF747BE027A1648B7
:10C8B0003F2A4FEA1215214694BF00220122FFF7BA
:10C8C00087FF022D94BF0022012210482146FFF766
:10C8D0007FFF012D0E4894BF0022012221460CB09B
:10C8E000BDE8F047FFF774BF037A002BB7D1427A57
:10C8F0000548C2F3C0022146F1E700BF30370020EF
:10C900002C37002034370020403700203C370020EF
:10C9100038370020283700201328014602D8024863
:10C92000FCF715BE002070472C37002007B501909A
:10C93000FFF7F2FF019930B10448FCF708FE002828
:10C9400014BF0220012003B05DF804FB343700203F
:10C9500007B50190FFF7E0FF019930B10448FCF7FB
:10C96000F6FD002814BF0220012003B05DF804FB8F
:10C970003037002007B50190FFF7CEFF019928B1AD
:10C98000044803B05DF804EBFCF7E1BD03B05DF8CB
:10C9900004FB00BF3837002007B50190FFF7BCFF4C
:10C9A000019928B1044803B05DF804EBFCF7CFBD52
:10C9B00003B05DF804FB00BF3C37002007B50190D1
:10C9C000FFF7AAFF019928B1044803B05DF804EB12
:10C9D000FCF7BDBD03B05DF804FB00BF403700208D
:10C9E00010B5034B04465968FFF7F7FE204610BD0B
:10C9F0002837002010B50446FFF78EFF002814BF2B
:10CA00002046142010BD000008B518210248FCF78C
:10CA1000A7FDC0B208BD00BF2837002070B50A4E80
:10CA2000054630460C46FCF792FD58B12846FFF704
:10CA300073FF38B10734294606EB8400BDE8704027
:10CA4000FCF785BD002070BD28370020F8B50B4FDE
:10CA5000054638460C461646FCF779FD60B1284677
:10CA6000FFF75AFF40B107343246294607EB8400EE
:10CA7000BDE8F840FFF7ACBEF8BD00BF2837002086
:10CA800073B50B4D019204460E4601462846FCF74D
:10CA90005EFD50B1063405EB8404019A60683146AE
:10CAA00002B0BDE87040FFF779BE02B070BD00BFB4
:10CAB0002837002070B50546164608460AB90E20EC
:10CAC00070BD00231360002DF9D02B68002BF6D029
:10CAD000EB8813F003040ED1FFF78CFFC0B21428CB
